:020000040000FA
:1000000060230020B50100004329000045290000BD
:1000100000000000000000000000000000000000E0
:100020000000000000000000000000004729000060
:100030000000000000000000492900004B290000DA
:100040004D2900004F2900005129000053290000CC
:100050005529000057290000592900005B2900009C
:100060005D2900005F29000061290000632900006C
:100070006529000067290000692900006B2900003C
:100080006D2900006F29000071290000732900000C
:100090007529000077290000C701000079290000B8
:1000A0007B2900007D29000000F002F800F057F8DD
:1000B0000CA030C8083824182D18A246671EAB467D
:1000C00054465D46AC4201D100F049F87E460F3EF1
:1000D0000FCCB6460126334200D0FB1AA246AB46EF
:1000E00033431847D8650000F8650000002300245A
:1000F00000250026103A01D378C1FBD8520700D35F
:1001000030C100D50B60704710B5642902D104F0EE
:1001100025FD10BD752902D104F020FD10BD782900
:1001200002D104F051FD10BD632902D105F042FD5A
:1001300010BD732902D105F045FD10BD002010BD92
:100140001FB5C046C04605F0ADFC040000200021EC
:1001500006F0B6F8401C60601FBD10B510BD06F07B
:100160004BF81146FFF7ECFF02F011FD06F063F8C3
:1001700003B4FFF7F2FF03BC02F014FC70B50546B0
:100180000C46164602E00FCC0FC5103E102EFAD2D8
:10019000082E02D303CC03C5083E042E07D301CC9E
:1001A00001C5361F03E021782970641C6D1C761E82
:1001B000F9D270BD0748804707480047FEE7FEE7D1
:1001C000FEE7FEE7FEE7FEE704480549054A064B61
:1001D00070470000FF010000A90000006017002028
:1001E00060230020601B0020601B00203648006850
:1001F00070473548406870473448006A704710B50A
:100200003348816B334A1161C16B30484160002132
:10021000016241698907CA0F012191404269D207F1
:10022000D20F9140CAB2416940698904890E514395
:100230008002294A800E504305F075F82249086073
:1002400010BDF8B5254F0126204D01280FD0002004
:100250002862214C1046214605F065F8C0B20128FD
:1002600008D8EE616F6101210A46134619E02E623B
:100270000C46EFE70021E961FF2101318006800A89
:100280000843686168698007C00F86406869C007D5
:10029000C00F86406869F2B28004810E68698002EE
:1002A000830E2046084C51436060584305F03BF8EC
:1002B0002060F8BD30B4064B9C6B064D2C61DB6BA7
:1002C000024C636030BCBCE700000020001000411D
:1002D00080FD03000012004100127A0000010200BC
:1002E0003F4A3F4B01218032984201D11160704753
:1002F0003B4B2033984201D111627047394A394B48
:1003000080329842F2D0374B20339842F4D0704775
:10031000334A334B0121C9438032984201D11160E5
:1003200070472F4B2033984201D1116270472D4AFC
:100330002C4B80329842F2D02A4B20339842F4D092
:100340007047816880229143816070478168802274
:1003500091438160002101602022826081617047A9
:10036000826880239A4382600A68026082684B68D0
:100370009B0113438A6892001A43CB6809695B00AA
:1003800013431943EF221140816070472022012955
:10039000816802D09143816070471143FBE70121DE
:1003A000C16070474069C0B2704780688006C00F66
:1003B00070478168802211438160704700687047F0
:1003C000016070474068704780687047816070477F
:1003D0000069704740697047806970478161704764
:1003E000001000400020004070B510240021016082
:1003F0004160BF4A426142628162426321225206E9
:10040000904202D1BB4BBC4A0CE043221206904200
:1004100004D1B84BB84A4033403203E0B54BB64A3A
:10042000803380320020602685005E515151401C8F
:10043000A042F9D370BDF0B5212200231026520648
:10044000904201D1AB4A08E043221206904202D109
:10045000A84A403201E0A74A8032012425460F68AD
:100460009D402F40AF4243D10F79012F0DD0456100
:100470004D79AD070DD59C001559AD08AD0015514E
:10048000155902273D4315510BE007692F430761BA
:10049000EEE79D005759BF08BF00575157592743F2
:1004A00057514C79640704D59C00155904273D43E6
:1004B00003E09C0015590427BD4315514C79A4064F
:1004C00004D59C00155920273D4303E09C00155995
:1004D0002027BD4315514C79640604D59C0015595D
:1004E00040273D4303E09C0015594027BD4315516B
:1004F0005B1CB342B1D3F0BD7D49016000210171A5
:100500006221417170470246126800200A4200D001
:1005100001207047006880B2704702465268002090
:100520000A4200D001207047406880B270470A0636
:10053000920D012312189B02D21811600A0A920030
:1005400010185A0080180160704710B50B069B0DFB
:100550000124CA431B18A4021B191A60090A890046
:10056000081861004018026010BD10B50B069B0D05
:1005700001241B18A4021B191A60090A8900081813
:1005800061004018026010BD41607047836A0B43F0
:100590008362012A03D0426A0A4342627047026AB8
:1005A0000A4302627047524A8262012901D04262C4
:1005B000704702627047012A03D0426B0A434263CC
:1005C0007047026B0A4302637047494A012901D010
:1005D0004263704702637047454981637047024632
:1005E000926B00200A4200D001207047F0B501262E
:1005F000414D002334469C400C420ED0002810D0C0
:10060000012811D03C4C9F0080343C192768BF085A
:10061000BF0027602768174327605B1C102BE9DBAE
:10062000F0BD9C006419F1E79C006419276CBF08B9
:10063000BF002764276C17432764EEE77CB50446A8
:100640001E460D466846FFF757FF68460095027143
:1006500069462046FFF7EFFE21204006844201D183
:10066000002006E043200006844201D1012000E082
:10067000022032462946FFF7B9FF7CBD7CB504460F
:1006800016460D466846FFF737FF0020694600957D
:1006900008712046FFF7CFFE206A28432062A06A37
:1006A0002843A062324629462046FFF784FF2120D6
:1006B0004006124E844206D1002001222946FFF74F
:1006C00095FF802012E043200006844207D10120DC
:1006D00002462946FFF78AFFFF20013006E002208C
:1006E00001222946FFF782FF0120400230607CBDD5
:1006F000FFFF0000003000410020004100E100E069
:10070000E12149020160602181800021C180032232
:10071000018112024281818170477047F8B5044619
:10072000006B0E46400840002063FFF765FD8B4FCD
:100730000125002846D03D61FFF758FD7A6929461A
:10074000914004F0F0FD07463068000105F084F99F
:100750000090384605F080F9009905F089F80746C1
:1007600005F036F9009005F077F9394605F004FEFA
:10077000062105F075F905F051F80022784B04F0D8
:10078000FFFF05F029F8014600986062A162E06A67
:10079000EE218843B188F288114332890243E06A2E
:1007A00011430843E062206B6E49B28908407189A9
:1007B00011430143206B08432063206B28432063CF
:1007C0000020F8BD022038617869294681406648DA
:1007D000B7E710B5C36A10242343C3624907890EE3
:1007E0005207520F1143416310BDC16A1022914359
:1007F000C162704701607047006880B27047C16A8B
:1008000001221143C16270470246526800200A4229
:1008100000D0012070474160704702469269002075
:100820000A4200D001207047002A03D0826B0A439D
:1008300082637047426C0A43426470470246126CFE
:1008400000200A4200D001207047426C0A434264F3
:100850007047704710B504464448016B02290AD01E
:10086000006B032807D0FFF7C1FC214604F05BFDB5
:100870003F49086110BDFFF7BCFCF6E710B5FFF774
:10088000E9FF3B49886803228008800010438860A4
:10089000002010BD36494A68D207FCD10860704775
:1008A0003348006880B27047314A014652680020E0
:1008B0000A4200D0012070472D4A0029916801D0DA
:1008C000014300E0814391607047294A0029916803
:1008D00001D0014300E0814391607047244A014602
:1008E000D26800200A4200D0012070472049CA681F
:1008F0000243CA607047016082691207FCD408464F
:10090000704730B50B4605461C78002C03D02146B5
:100910002846FFF7F0FF5B1C002CF5D130BD816944
:10092000C906FCD40068C0B2704700B50346FFF7A3
:10093000B1FF184600BD10B503461C78002C02D04C
:100940002046FFF7A7FF5B1C002CF6D110BD08481E
:1009500041688907FCD50068C0B27047401100416A
:100960000000E03FFE3CFFFF00127A000010004153
:1009700000600040007870470170704730B5002477
:1009800005E00D19ADB2455D1555641CA4B29C423D
:10099000F7D330BD70B5002405E00E19155DB6B271
:1009A0008555641CA4B29C42F7D370BD70B5140089
:1009B0000FD01A4A83049E18F268400795B2184A6D
:1009C000C00A10430A4623462946FFF7E3FF2819C9
:1009D000F06070BD70B514000FD0104A83049E18EB
:1009E000B26A400795B20F4AC00A10430A4623462E
:1009F0002946FFF7C3FF2819B06270BD10B5002962
:100A00000BD0064A83049B189A6A4007054CC00A1B
:100A10005118204389B20818986210BD000201469F
:100A2000000002460000034670B50446082802D9BB
:100A30000020C04370BDFA48A604301805461021B6
:100A4000FFF79AFF2846FFF795FF0028FAD1F448F0
:100A50001F2118303018FFF78FFFF24801218288DC
:100A6000A1408A438280F04A002061005052ED4943
:100A7000891D0855EA48203034182046FFF77AFFD0
:100A80000028FAD1012070BDF8B51C4616460F4665
:100A90000546082802D90020C043F8BD012F06D022
:100AA000022F04D0042F02D00420C043F8BD6007F9
:100AB000810FDE48FAD1002C0CD0012F02D0022F7A
:100AC00008D103E021210C42F0D003E0A10601D5BA
:100AD0002106EBD52846FFF7A7FF21090901D048D9
:100AE0003943AF0410383818FFF746FF002E0AD1FB
:100AF000CC48CF4A0688711C89B20180914202D14C
:100B0000032189030180C648F03038184661C44883
:100B1000012138180646FFF72FFF3046FFF72AFF5E
:100B20000028FAD1BF48E107C90F4288A940114304
:100B3000418001218288A9408A438280BA4A0020EC
:100B400069005052B749891D4855B54820303C18B6
:100B50002046FFF70FFF0028FAD068B2F8BD70B545
:100B60000646082802D90020C04370BDAC48B40432
:100B700010382018FFF7FEFE0007000F012802D0F2
:100B80000420C04370BDA648203020180546FFF75A
:100B9000F1FE132802D00220C04370BDA0480221FC
:100BA00020180446FFF7E8FE2046FFF7E3FE002882
:100BB000FAD12846FFF7DEFE142805D03046FFF7AD
:100BC00033FF0320C04370BD012070BDF7B50D4653
:100BD0000746082802D90020C043FEBD9048BC0447
:100BE00010382018FFF7C6FE0007000F012802D0BA
:100BF0000420C043FEBD8A48203020180646FFF777
:100C0000B9FE132802D00220C043FEBD29786A78BD
:100C100008028018AA7800028018EA78000280187A
:100C2000421C32D0002830D00298002830D08148B1
:100C30002018FFF7A1FE7F486978401E2018FFF7B3
:100C40009BFE7C48A978801E2018FFF795FE794806
:100C5000E978C01E2018FFF78FFE764902982739E1
:100C6000611808626E48042120180546FFF784FECB
:100C70002846FFF77FFE0028FAD16A4901204988FB
:100C8000B84008421CD00020FEBD0B20C043FEBD72
:100C90000A20C043FEBD2846FFF76CFE000708D5BA
:100CA0005F48082118302018FFF766FE0C20C0436B
:100CB000FEBD3046FFF75EFE002804D1001FFEBDDA
:100CC0005748103025183046FFF754FE1728E2D158
:100CD0000120FEBD70B50646082802D90020C04399
:100CE00070BD4F48B50410382818FFF743FE0007C1
:100CF000000F012802D00420C04370BD48480821DD
:100D000028180446FFF738FE2046FFF733FE002878
:100D1000FAD1444901208A88B04082438A804988B8
:100D200008420CD0002070BD2046FFF723FE0007CC
:100D30000BD53046FFF778FE0C20C04370BD384815
:100D400010302C18364820302D182846FFF712FE98
:100D50000028E9D1012070BDF7B582B00298144691
:100D6000082803D90020C04305B0F0BD86042C48F4
:100D700010383018FFF7FEFD0007000F012802D0E1
:100D80000420C043F0E7002C0CD025482030301858
:100D90000190FFF7EFFD172807D01C2805D006208B
:100DA000C043E1E70D20C043DEE7029801251D4F57
:100DB0008540B888054211D0194810303018FFF727
:100DC000D9FDC006C00EC10621D515481021183026
:100DD0003018FFF7D1FDB888A843B8801548D9303E
:100DE00030180090FFF7C6FD8006000C844200D941
:100DF00004460098406887B20198FFF7BBFD1728AA
:100E00001AD01C2818D00298FFF70EFEC7E700077B
:100E100018D50298FFF708FE0C20C043A4E7000095
:100E20001000014608000020F0010020FAFFFFFF3B
:100E3000F0FF000027010146FE484088054203D02C
:100E4000BC4201D900208FE7BC42D2D82246039988
:100E50000298FFF7ABFDF848202130180646FFF74F
:100E60008BFD3046FFF786FD0028FAD1F1488188D6
:100E70000D438580204677E7F7B582B00298144687
:100E8000082802D90020C0436EE78704EA481038DA
:100E90003818FFF76FFD0007000F012802D004206B
:100EA000C04361E7002C19D0E4483818FFF762FD11
:100EB0008006000CA04200D20446DF4820303818DB
:100EC0000090DE4820383E18706A85B20098FFF71F
:100ED00051FD172815D01C2803D00CE00D20C0436D
:100EE00042E7002D1AD13046FFF744FD71688002B9
:100EF00089B2884205D10298FFF796FD0620C043CB
:100F000032E7029901208840CA494988084203D043
:100F1000002D03D1002027E7002DD5D0A54200D217
:100F20002C46224603990298FFF754FDC2484021FF
:100F300038180546FFF720FD2846FFF71BFD00285F
:100F4000FAD1204610E7FFB583B003981E46154638
:100F5000082803D90020C04307B0F0BD8404B64878
:100F600010382018FFF706FD0007000F022804D0F4
:100F7000042802D00420C043EEE7002D1DD03078B5
:100F8000717800024018B17800024018F178000230
:100F9000C84202D10B20C043DEE70C9800280FD0D6
:100FA000A548203020180746FFF7E4FC42280AD065
:100FB000222808D00620C043CEE70D20C043CBE74F
:100FC0000A20C043C8E79D483178F9382018FFF758
:100FD000D3FC9A487178FA382018FFF7CDFC97486F
:100FE000B178FB382018FFF7C7FC9448F178FC383B
:100FF0002018FFF7C1FC90490C98F0316118086285
:101000008E48203820180190FFF7B4FC8006000CB1
:10101000854200D905460399012088400090019837
:10102000406886B23846FFF7A5FC002808D0814901
:1010300000984988084206D0B54204D900208BE7C1
:101040000320C04388E7B542E9D82A4604990398AB
:10105000FFF7ACFC7848202120180746FFF78CFCEE
:101060007548183026183846FFF784FC0028FAD156
:101070007148103024182046FFF77CFCC006C00ED3
:10108000C10605D530461021FFF776FC284663E7F8
:101090000007F0D530460821FFF76EFC0C20C04356
:1010A0005AE7FFB5002485B00646082802D9601E1D
:1010B00009B0F0BD6048B50410382818FFF75AFC95
:1010C00004900007000F022804D0042802D0042056
:1010D000C043EDE70798002805D059487700C05B6A
:1010E000002803D022E00D20C043E1E75348203818
:1010F000281803905048203028180125B540029048
:101100000398406A84B20298FFF734FC002806D0A6
:1011100048484088054207D0002C03D006E0032051
:10112000C043C5E70020C3E7002CE9D041480021B7
:10113000801D81550498B20441073F48490F151896
:1011400002291FD0042957D021463046FFF756FC0C
:101150003B48C45328464021FFF70EFC2846FFF7C2
:1011600009FC0028FAD13648C15B091B0904090CA7
:10117000C15305D02F480122801D815D1143815547
:10118000204695E72E4CE05B002865D10822694691
:101190003046FFF71FFC28464021FFF7EDFB2846AD
:1011A000FFF7E8FB0028FAD168460178089801703B
:1011B000684641780898417068468178089881703F
:1011C0006846C1780898C17068460E990079088011
:1011D00001026846407908180E99088068468079AF
:1011E00001026846C0790818E05332E022463046D2
:1011F0000699FFF7EFFBADE7114CE05B00282BD120
:10120000022269463046FFF7E5FB28464021FFF7FA
:10121000B3FB2846FFF7AEFB0028FAD168460078FA
:10122000010268464078081880B20649E0538842B7
:101230000FD909E0080000201000014620020146F5
:10124000F0010020EA0500003046FFF7EDFB9E4864
:101250002EE79E4980208855E45B07988442C5D9D3
:101260000446C3E7F8B514460646082802D900200C
:10127000C043F8BD954B96489B1F0927B2045D8873
:10128000FF4310180B0005F007F80805171B1D2574
:101290002E37314021780120B040012902D00029A9
:1012A00005D032E08949891F284348802BE08749CF
:1012B000891F85434D8026E0F540E807C00F19E0FF
:1012C000844801E0834820301018FFF753FB800268
:1012D000208018E020781F2817D8C1067C48C90E46
:1012E000001D10180DE07A48001F1018FFF742FB90
:1012F000C006C00E207006E021781F2905D8C90657
:10130000C90EFFF739FB0120F8BD3846F8BDF8B526
:101310001546082802D90020C043F8BD84046D4B4F
:101320006B4A6B48803BDC3224380427E618A2184D
:101330002018FF430B0004F0AFFF084F05091042CF
:101340001316444F62482978E43002E06048297857
:10135000E0302018FFF710FB31E0288810612EE004
:10136000288810622BE0FFF705FB0007000F01281B
:101370002DD13046FFF7FEFA002802D00120C043ED
:10138000F8BD53482221143820180546FFF7F4FA17
:101390004F48001F26180DE03046FFF7EBFA000714
:1013A00008D54B480821001D2018FFF7E5FA0C204E
:1013B000C043F8BD2846FFF7DDFA0028ECD1012034
:1013C000F8BDFFF7D7FA0007000F012801D0384613
:1013D000F8BD29783046BDE70920C043F8BDF8B50F
:1013E00014460646082802D90020C043F8BDB504BB
:1013F0003748374A374B2438DC32EF182818AA18F8
:101400000B0004F049FF0D080D121517305E323E37
:10141000404248525E00FFF7ADFA0009000102E0C9
:101420002B48E43033E020703DE02948E0302EE0E6
:101430001069F8E72748D9382818FFF79BFA207079
:101440002448DA382818FFF795FA60702148DB380D
:101450002818FFF78FFAA0701E48DC382818FFF70D
:1014600089FAE0701FE0106A1CE0FFF783FA0007BA
:10147000000F01281FD1174880382818FFF77AFA83
:1014800010E078680EE0786A0CE011480C302818FB
:10149000FFF770FAC7E7FFF76DFA0128F3D00E499E
:1014A0007000085A20800120F8BDFFF763FA00079A
:1014B000000F012802D00420C043F8BD0348805D1E
:1014C000B1E70120C043F8BD17FCFFFF0E0000206C
:1014D0002400014600020146F001002070477047D9
:1014E0007047704700787047017070470020704760
:1014F0007047FE4A002804D0002902D0D1609060D5
:101500007047FB489060FB48D0607047F74A00285E
:1015100004D0002902D0516110617047F648106173
:10152000F6485061704710B5F04A1388DC05FDD5C8
:10153000002804D0002902D0D161906110BDF0488C
:101540009061F048D06110BD10B5E84A13889C0541
:10155000FDD5002804D0002902D0D161906110BDD2
:10156000E9489061E948D06110BD0020C043704750
:101570000020C043704710B5E548FFF7FBF904466B
:10158000E3481030FFF7F6F90002001980B210BDF1
:1015900010B5C1B2040A09090901DD48FFF7ECF9E9
:1015A000DB4821461030FFF7E7F910BDD84810B5E9
:1015B000001FFFF7DFF90446D5480C30FFF7DAF9D2
:1015C0000002001980B210BD10B5C1B2040AD048A3
:1015D00009090901001DFFF7CFF9CD4821460C305C
:1015E000FFF7CAF910BDF0B593B0CA48FFF7C2F9CA
:1015F0001190C848401EFFF7BDF9C64C1090A41EBC
:101600002046FFF7B7F9651E0F902846FFF7B2F99D
:101610000E90A01DFFF7AEF90D90601DFFF7AAF91F
:101620000C90BC480830FFF7A5F90B90B948C01DD5
:10163000FFF7A0F9B74E0A90B61D3046FFF79AF9AA
:101640000990E01DFFF796F90890B01DFFF792F999
:101650000790701DFFF78EF90690301DFFF78AF98D
:101660000590F01CFFF786F90490AA481030FFF7A8
:1016700081F9A84F03900F373846FFF77BF90290A6
:10168000781EFFF777F90190F01DFFF773F90090CE
:101690008021A148FFF770F99F48FFF76BF9A01C64
:1016A0001199FFF769F9601C1099FFF765F9204659
:1016B0000F99FFF761F928460E99FFF75DF9A01D14
:1016C0000D99FFF759F9601D0C99FFF755F9B01CFA
:1016D0000B99FFF751F9701C0A99FFF74DF9304645
:1016E0000999FFF749F9E01D0899FFF745F9B01D81
:1016F0000799FFF741F9701D0699FFF73DF9301D75
:101700000599FFF739F9F01C0499FFF735F9781CB2
:101710000399FFF731F938460299FFF72DF9781E42
:101720000199FFF729F9F01D0099FFF725F913B08A
:10173000F0BDF8B50D4606460024FFF754FF002E15
:1017400014D00022B05C521C001952B244B2082AD4
:10175000F8DB102C17DC714F0024A004315DC01998
:10176000FFF70AF9641C64B2082CF6DB002D19D0CF
:10177000002108462A5C401C511840B249B2082892
:10178000F8DB102902DD0020C043F8BD634E0024C1
:101790002036A004295D8019FFF7EEF8641C64B2BE
:1017A000082CF6DB0020F8BD70B50C46024600217F
:1017B00008464D1E130004F06FFD090609151118A7
:1017C0001C2E2E202E00FFF70EFF22E0002C02D050
:1017D000214620460831FFF7ACFF70BD2088FFF797
:1017E000F3FE16E0FFF7E2FE05E02088FFF7D0FEEB
:1017F0000FE0FFF7C0FE20800BE03C4882782270AB
:10180000C27862700279A2704279E27080792071A8
:101810006171002070BD284670BD10B504463D487A
:101820004130FFF7A7F820703A483D3000686080EB
:1018300010BD10B50446017836484130FFF79CF8DA
:10184000344960883D31086010BD10B53248FFF75B
:1018500091F810BD70B50446C720044202D00020A4
:10186000C04370BD2C4D2846FFF784F82043014645
:101870002846FFF781F8002070BD10B504462548C2
:10188000FFF778F820702348401EFFF773F8607068
:101890002048801EFFF76EF8A0701E48C01EFFF79C
:1018A00069F8E0701B48001DFFF764F820711948C3
:1018B000C01CFFF75FF8607116480830FFF75AF850
:1018C000A0731448C01DFFF755F8E0731148801D40
:1018D000FFF750F820740F48401DFFF74BF8607475
:1018E0000C480C30FFF746F8A07219E020000020E9
:1018F000DD140000DF140000E1140000E314000018
:10190000E5140000E9140000ED140000F1140000DB
:101910000421004603600046002300460002014601
:101920005F480B30FFF726F8E0725D480A30FFF79A
:1019300021F820735A480930FFF71CF860735848A3
:101940001030FFF717F8A07155480F30FFF712F865
:10195000E07153480E30FFF70DF8207250480D30FB
:10196000FFF708F860724F480178A1744178E1747C
:1019700081782175C07860754A48401E0078A0754E
:1019800010BD10B5044601784548FEF7F5FF444800
:101990006178401EFEF7F0FF4148A178801EFEF7F7
:1019A000EBFF3F48E178C01EFEF7E6FF3C48217997
:1019B000001DFEF7E1FF3A486179C01CFEF7DCFF2D
:1019C0003748A17B0830FEF7D7FF3548E17BC01DC3
:1019D000FEF7D2FF3248217C801DFEF7CDFF304854
:1019E000617C401DFEF7C8FF2D48A17A0C30FEF740
:1019F000C3FF2B48E17A0B30FEF7BEFF2848217B5E
:101A00000A30FEF7B9FF2648617B0930FEF7B4FFC4
:101A10002348A1791030FEF7AFFF2148E1790F305C
:101A2000FEF7AAFF1E48217A0E30FEF7A5FF1C48DC
:101A3000617A0D30FEF7A0FF1A48A17C0170E17CAD
:101A40004170217D8170617DC1701649A07D491E64
:101A5000087010BD10B50C46030004F01DFC060410
:101A6000080C1014181D0846FFF78BFF12E00846FB
:101A7000FFF703FF0EE00878FFF7ECFE10BDFFF75D
:101A8000E4FE207006E00846FFF7D3FE02E00846B9
:101A9000FFF7C3FE002010BD0020C04310BD0000B2
:101AA000036000461900002070B58F4C0546208861
:101AB000286161882846FEF73AFD012001F058F8B8
:101AC00061882846FEF741FD012001F051F870BD04
:101AD000F8B507460020844D04464600698838461C
:101AE000FEF725FD012001F043F869883846FEF72E
:101AF0002CFD012001F03CF829883846FEF703FD53
:101B00003043641C102CE8D3F8BD70B5764C054604
:101B100020886861012001F02BF861882846FEF7D3
:101B200006FD012001F024F861882846FEF70DFD2E
:101B3000012001F01DF870BDF8B5074616462020BB
:101B4000801B81400C46684D18E02988002C3846DF
:101B500002DAFEF7ECFC01E0FEF7F7FC012001F0F1
:101B600007F869883846FEF7E2FC012001F000F82A
:101B700069883846FEF7E9FC6400761E002EE4D141
:101B8000F8BD70B50C46002105462022C943FFF779
:101B9000D3FF042206212846FFF7CEFF5248052234
:101BA00041682846FFF7C8FF052221462846FFF76F
:101BB000C3FF2846FFF7A9FF2846FFF789FF044621
:101BC0002846FFF771FF204670BD10B54320012164
:101BD0000006FFF7D6FF4007C00F10BD70B50C46DA
:101BE0001646002105462022C943FFF7A5FF04221F
:101BF00005212846FFF7A0FF3B48052241682846FB
:101C0000FFF79AFF052221462846FFF795FF02229B
:101C100011462846FFF790FF102231462846FFF76D
:101C20008BFF2846FFF740FF70BD01221203904250
:101C300003D021210902084002460021432000066A
:101C4000CCE7F8B54326294F360600240021202290
:101C5000C9433046FFF770FF042206213046FFF7E4
:101C60006BFF052221463046FFF766FF0522012162
:101C70003046FFF761FF3046FFF747FF3046FFF77A
:101C800027FF05463046FFF70FFF002D03D0BD426A
:101C900001D02046F8BD641C082CD7DD14A002F04A
:101CA000EBFED2E77CB5054614460E466846FEF7C5
:101CB00023FC3046204300900120694608712846E5
:101CC000FEF7B9FB012221461046FEF78FFC0122E8
:101CD00031461046FEF78AFC034D6E802C80FFF7DC
:101CE000B0FF68607CBD000040000020FFFF0000E6
:101CF0000D0A7068792069642064657465637420D6
:101D00006572726F7221210D0A00000010B5FE4C41
:101D1000FE482178FEF730FEFC486178401EFEF751
:101D20002BFEFA48A178801EFEF726FEF748E178E0
:101D3000C01EFEF721FEF54808342178001FFEF78B
:101D40001BFEF2486178401FFEF716FEEF48A178AF
:101D5000801FFEF711FEED48E178C01FFEF70CFE74
:101D6000EA48241F21780838FEF706FEE748617824
:101D70000938FEF701FEE548A1780A38FEF7FCFDB8
:101D8000E248E1780B38FEF7F7FD10BD10B5E04CE6
:101D900080212046FEF7F0FD2046FEF7EBFDFFF721
:101DA000B5FFD94CD948353421781038FEF7E4FD19
:101DB000D64861781138FEF7DFFDD448A178123893
:101DC000FEF7DAFDD148E1781338FEF7D5FDCF48AC
:101DD00021790C38FEF7D0FDCC4861790D38FEF73B
:101DE000CBFD10BD10B5CA4C80212046FEF7C4FDC6
:101DF0002046FEF7BFFDC44CC44835342178103866
:101E0000FEF7BAFDC14861781138FEF7B5FDBF484D
:101E1000A1781238FEF7B0FDBC48E1781338FEF720
:101E2000ABFDBA4821790C38FEF7A6FDB7486179B9
:101E30000D38FEF7A1FD10BDB34B10B5DB1FB54C3F
:101E40005C62B54C9C62B54CDC62002800D05862E4
:101E5000002900D09962002A00D0DA6210BD30B5A6
:101E6000A94B0120DB1F996B087048700620887011
:101E70000020C8705A6B120E0A715A6B120C4A710C
:101E80009A8E120A8A719A8ECA71996B8022088181
:101E90008A72C872996B1A46087348738873C8733C
:101EA000087448748874C874087548758875C8754E
:101EB000087648768876C8763C3214780C77547861
:101EC0004C7794788C77D478CC770C46157920347D
:101ED00025705279627006228C18521CD2B220777B
:101EE000102AF9D39A6B002154182034491CC9B226
:101EF00020734029F8D39A6B002154186034491C90
:101F0000C9B220738029F8D3986B6321E030017344
:101F10008222427353228273C17330BDFEB5FFF734
:101F20009EFF79483522C01F836BF021CA540122DD
:101F3000F121CA54F221CA543D22F321CA54072286
:101F4000F421CA540122F521CA5401463C310A78D1
:101F5000F621CA5401463C314A78F721CA54024658
:101F60003C329478F822D45402463C32D478F92298
:101F7000D45402463C321479FA22D45402463C32FC
:101F80005479FB22D4540C21FC22D1540027FD218A
:101F9000CF54122204463946423406E09E18E036F9
:101FA000521C491C357392B289B2655C002DF5D183
:101FB000846B554BA6183533DD78E0363573521CEB
:101FC00092B2A6181D79E0363573521C92B2A5184C
:101FD0005B79E0352B73521C92B2CB1C511A091954
:101FE000E0310B72816B37238C18E0342373521C61
:101FF00092B28C18521C92B28D180623E0342373CF
:102000000124E0352C73521C92B28D180324E03564
:10201000521C2C7392B28C18E0342373521C92B26F
:102020008C180F23E0342373521C92B28B183A247D
:10203000E0331C73521C92B28B18E0333B24521CC9
:102040001C7392B2FF238C18E0342373521CFF24BC
:1020500092B2393404E08D18E035521C2F7392B2DD
:10206000A242F8D369460B714B718B71CB7143213E
:1020700000918922816B01AB92008078FEF763FFAB
:10208000FEBDFEB5FFF7EBFE1F4C0020E41FE11D77
:1020900020560B462933FF2703284AD0042848D06E
:1020A0006846077147718771C771A26B3520F025AB
:1020B000A8540120F125A8540320F225A8543D205E
:1020C000F325A8540720F425A8540120F525A85489
:1020D0000D48F62535300078A8540B48F7253530E3
:1020E0004078A8540848F82535308078A854064828
:1020F000F9253530C078A8540348FA2535300079E1
:10210000A854014835300BE04F0000201360004612
:10211000002300460D1D00008D1D0000E51D000080
:102120004079FB25A8546D46ED791020FF2D16D07F
:1021300039E0A06B00228272C2720A7802734A7878
:1021400042738A788273CA78C2731A7868460271B9
:102150005A7842719A788271DA78C271A5E732258D
:10216000FC2085540425FD2085540E78FE208654DD
:102170004E78FF2086548878AE01B054C978701C20
:1021800081543621401C8154401C85541978401CD0
:1021900081545978401C81549978401C8154D978D5
:1021A000401C81541C2013180C21E0331973401C6F
:1021B00013180021E0331973F94D401C05E016187F
:1021C000E036401C337380B2491C6B5C002BF6D1A7
:1021D000A36BF34A1E18921FD578E0363573401C66
:1021E00080B21E181579E0363573401C80B21D1878
:1021F0005279E0352A73401C82B2C81C511AC918A2
:10220000E0310872A06B37218318E0331973521C38
:1022100091B243180822E0331A73491C89B243185B
:102220000122E0331A73491C89B243180322E033B8
:102230001A73491C89B243180622E0331A73491CE9
:1022400089B243180F22E0331A73491C89B242182D
:102250003A23E0321373491C89B242183B23E0321F
:10226000491C137389B242181F23E0321373491CAF
:1022700089B242182123E0321373491C89B24218F3
:10228000E0321773491C0022FF2389B2393303E07F
:102290004518E0352A73491C9942F9DB4320009028
:1022A000892201AB9200A078A16BFEF74CFEFEBD27
:1022B0001CB5FFF7D4FDBA4800214238806B3522A7
:1022C0008172C172F0210A540122F1210A540422C0
:1022D000F2210A543D23F3210B540722F4210A541E
:1022E0000122F5210A54AE49F622891F0B781354B6
:1022F0004B78F72213548B78F8221354CB78F922B9
:1023000013540B79FA2213544A79FB210A543222CE
:10231000FC210A540422FD210A54A1493B390A78C0
:10232000FE210A549E493B394A78FF210A549C49B0
:102330003B398A78FF2101310A5499493B39CA78DF
:10234000FF2102310A543622491C0A540422491C36
:102350000A549349FF2212390B78053213544B78F3
:10236000521C13548B78521C1354CA78FF21083125
:102370000A54FF22491C0A541D210023FF2239322E
:102380004418E034491C23739142F9DBFF2069466D
:10239000087148718871C871432000908048892273
:1023A0004238816B01AB92008078FEF7CCFD1CBDFA
:1023B0007FB57B4C7B4A423CA07881048918496AEE
:1023C0000A04120C27D001A9009102ABA16BFEF701
:1023D00068FE82B26846808843283CD1A06B2146C3
:1023E0003C31037F0D78AB4215D1457F4B789D4240
:1023F00011D1837F8D78AB420DD1C37FCD78AB42B5
:1024000009D1034620331D780E79B54203D15B789C
:1024100049798B4202D0002004B070BDF030002515
:102420008118F03915E00278332A3ED008DC002A02
:1024300015D0012A18D0032A1AD0062A06D125E081
:10244000352A0ED0362A3FD0FF2A06D04278801C8B
:1024500080188842E7D368B2DEE70846F9E7401CF7
:10246000F7E78578C01CF4E74D4A8378333A2EE0CD
:102470004B4A43788678373A1670C6785670067994
:1024800096704679801DD670C0180CE0444B427897
:1024900086782F3B1E70C6785E7006799E704679EE
:1024A000801DDE708018001FD3E78278A261C37898
:1024B00012029A18A261037912029A18A261437952
:1024C00012029A18A26109E0354A8378123A137011
:1024D000C3785370037993704379D370801DB8E744
:1024E0002F4800214238C1610522026241707047C5
:1024F00070B52B4C0125423C61570026224690576F
:10250000022917DAE269216A914223D2012804D014
:10251000022805D0042805D102E0FFF7FFFC01E006
:10252000FFF7AFFDE661E069401D20626078401C66
:1025300060700FE0012804D0022805D0042807D1DC
:1025400002E02670002503E0FFF7E8FC0120207080
:10255000FFF7C6FF284670BDF8B5134E3046FEF7AC
:1025600009FA054603213046FEF706FA0C4B0F48E0
:102570003B3BDC1F009011220DA1A078FEF7E3FC8D
:10258000074629463046FEF7F7F90D371AD0FFF710
:102590008FFEE069E169091A0229FBD30020F8BD2A
:1025A0008A000020000201464460004688130000B3
:1025B000434845434B5F49505F434F4E464C494368
:1025C000540000000120EAE7F8B5B74C207806284F
:1025D0001ED0A078B54980044018FEF7CBF9222818
:1025E00005D0002344220221A078FEF74DFA0125F0
:1025F000FFF7DEFEC1B20022A256AB48002601273B
:10260000C01D130003F048FE05060D1C314C2F00C1
:102610000520C4E7067046708670C670FFF77EFC22
:102620005EE002291CD1A16B0A7C02704A7C4270D8
:102630008A7C8270C97CC170FFF723FD02204BE0C9
:1026400005290BD1FFF788FF002801D0606A3FE021
:10265000FFF746FFE06A8047267004E006293DD078
:10266000FFF746FF0546284699E7A16904254A1C5D
:10267000F9D0E26949089142F5D28B490278C91C28
:102680000A7042784A7082788A70C078C870606B2D
:10269000401C6063FFF7F5FCFFF722FF04201BE0FE
:1026A00004250529DAD180496670C91C0A780378A7
:1026B0009A420BD14A7843789A4207D18A78837834
:1026C0009A4203D1C978C078814202D0A06A03251A
:1026D0008047FFF705FF03202070C4E7FFF700FFE6
:1026E0002770C0E710B5704CA078FEF79DF9062062
:1026F000207010BDF3B56E4F83B0064600253846F6
:102700000095FEF737F9684C3C342070781EFEF7D0
:1027100031F96070B81EFEF72DF9A070F81EFEF7B3
:1027200029F9E070381DFEF725F92071F81CFEF735
:1027300021F96071014620786278E3781043A2782D
:102740001A4310432279104308431FD125700820F3
:102750006070DC20A070E5702571294665713846EF
:10276000FEF70AF96178781EFEF706F9A178B81E1F
:10277000FEF702F9E178F81EFEF7FEF82179381D20
:10278000FEF7FAF86179F81CFEF7F6F8464F49496A
:10279000BE700498B863E0786379421821798A188A
:1027A00048409A1858408018786368460178404835
:1027B0000C461030FEF7E0F868464078029001467B
:1027C0003B480F30FEF7D8F8684680780190014604
:1027D00037480E30FEF7D0F86846C67834483146A0
:1027E0000D30FEF7C9F8324821461030FEF7C4F824
:1027F0002F4802990F30FEF7BFF82D4801990E308F
:10280000FEF7BAF82A4831460D30FEF7B5F82848E9
:1028100021460830FEF7B0F825480299C01DFEF7A2
:10282000ABF823480199801DFEF7A6F820483146F1
:10283000401DFEF7A1F8FFF753FE3D7005B0F0BD57
:102840001948C169491CC16170471749C91D0A78F7
:1028500002704A7842708A788270C978C170704775
:1028600011490B310A7802704A7842708A78827076
:10287000C978C17070470C490F310A7802704A78E4
:1028800042708A788270C978C170704706491331E6
:102890000A7802704A7842708A788270C978C1706A
:1028A00070470148806970474800002030000146A9
:1028B0000360004678563412F0B587B001F0ECFDA5
:1028C00004466D46A81DFFF7C0FF03A8023006901E
:1028D000FFF7C6FF02A802300746FFF7CCFF04A8A7
:1028E00002300646FFF7D2FF21460622173168461E
:1028F00001F0BCFE20460422A91D1D3001F0BAFEE5
:10290000204604222130069901F0B4FE204604221C
:102910003946253001F0AEFE2046042231466530AE
:1029200001F0A8FE6034E078002801D0022000E029
:102930000120694688750020FFF78CF807B0F0BDCC
:1029400070477047704770477047704770477047CF
:1029500070477047704770477047704770477047BF
:1029600070477047704770477047704770477047AF
:10297000704770477047704770477047704710B591
:10298000C0B2FDF7D2FF10BD10B5FDF7E0FFFDF7B7
:10299000CCFF10BD0020C043704710B5C0B2FDF79A
:1029A000C4FF10BDFEE7000010B501F075FD6030FA
:1029B000C078002806D0C4484078012803D0C3A0BE
:1029C00002F05AF810BDFFF76CFF0146C4A002F0F8
:1029D00053F810BD70B50024CB490320FFF78AFEE1
:1029E000CB49CA4A0846FFF727FAFFF7EDFD05462F
:1029F000042807D0002D01D1641CE4B2032C03D9B4
:102A0000FFF770FE68B270BD00F053FF01F0F9F9F6
:102A1000EBE738B501F040FD0446BEA002F02CF80B
:102A2000BDA1CAA002F028F8CAA002F025F8D3A0E0
:102A30000090A37D627D217DD1A002F01DF8B6A19A
:102A4000C2A002F019F838BD03C880F3088808470F
:102A500000B5C1B000216A460B785354491C0829BF
:102A6000FAD30821435C5354491CA829FAD3A8205F
:102A700001781154401CFF28FAD972B600231A4677
:102A80001946122001F0B0F8FF2301336A460021F5
:102A9000222001F0A9F862B641B000BDF0B58FB0B8
:102AA00001F0FAFC0446002000900190182102A8D1
:102AB00002F0D9FB182108A802F0D5FBE07D002523
:102AC000002805D1207E082802D1607EDC2842D073
:102AD00000236A461946184601F0F4F86846007863
:102AE000002807D168464078082803D168468078D6
:102AF000DC2834D0AD4888212746017002AE40372B
:102B0000ABA001F0B9FF0025FDF721FF70556D1C4A
:102B1000EDB2152DF8D308A902A800F0A4F90028F9
:102B20000BD0787B002803D008A988A001F0A4FF6F
:102B3000182102A802F097FBE2E7002001F0DBF881
:102B40000023224617321946184601F002F901F017
:102B5000A5FC01F083FD012528460FB0F0BD2046FD
:102B600006226946173002F01FFB01F077FDF3E7FC
:102B700001B582B0FDF73AFB924902F0D4FB02990D
:102B8000484300E0401E00900028FBD10EBD01F03C
:102B900083FC044601F00EFC8B4900200A46FDF739
:102BA00089FB8A48FFF7E4FF01F0F8F801F073F9B8
:102BB000FDF71CFB834902F0B6FB8549086008203D
:102BC0002870844868802846FEF733FE01F0D5FB64
:102BD00001F01CFD00262A200655FFF75FFF0725A0
:102BE0002D03002802D02846FFF732FF2746A037E2
:102BF000387A01280FD1022001F0F9F980280AD192
:102C000021463E72AB31002002F085FB01F026FD2B
:102C10002846FFF71DFF2868401C3BD001F0FCFB55
:102C2000002804D06968286880F30888884725460A
:102C30004035687B002801D0FFF7EBFE6034E07878
:102C40000127002803D0FFF7C5FE042825D001F096
:102C50000CFE687B002803D001F069FDFFF7A4FE9D
:102C600019480770002001F0DFFB5B4D00F021FEEA
:102C7000E078002801D0FFF7A7FC2878002806D0CC
:102C8000002001F0E9FB012001F0E6FB2E7001F0CD
:102C9000B8F8EBE701F0C0FBC9E70B484770D8E78D
:102CA00000B5C1B00020694602780A54401CFF28D4
:102CB000FAD972B6FF230A466F2101330902222096
:102CC00000F092FF62B6E7E698000020202320443F
:102CD000484350204661696C65640D0A000000009D
:102CE00020232044484350204950204C656173659F
:102CF000642074696D65203A202575207365636FC3
:102D00006E64730D0A0000000002002041290000DB
:102D1000B92800000D0A00003D3D3D3D3D3D3D3DD3
:102D20003D3D3D3D3D3D3D3D3D3D3D3D3D3D3D3DD3
:102D30003D3D3D3D3D3D3D3D3D3D3D3D3D3D3D3DC3
:102D40003D3D3D3D3D3D3D3D3D3D000025730D0A72
:102D500000000000205B5737353030505D20536550
:102D60007269616C20746F2045746865726E657459
:102D7000204465766963650D0A00000064756F0084
:102D8000203E3E204669726D7761726520766572DD
:102D900073696F6E3A20426F6F742025642E25642C
:102DA0002E25642025730D0A000000009C000020E1
:102DB000494E505554204649525354204D41433FAB
:102DC0000D0A00001027000000127A00DC05000048
:102DD00000200046C4090000B8010020F8B5002713
:102DE0000D4604460F70F94E09E002F05FF9024605
:102DF0002046316802F07CF9002804D0361D306886
:102E00000028F2D129E03068002826D0EF48301A97
:102E10008005060E2B2E07D02C2E11D0A11C284683
:102E200002F01EF93046F8BD207A0D2815D1607ADF
:102E30000A2812D10622A11C284602F0B5F9F1E7B2
:102E4000002002E02954401CC0B2211889780D29C5
:102E5000F8D12118C9780A2901D0FF20F8BD2F54D4
:102E600028184770DEE7F0B599B00F46054601F027
:102E700013FB1490002410A98C8304213846169467
:102E800002F0EFF9D2A12846D1E304A9FFF7A6FF8B
:102E90000646FF286FD004A802F008F980B200901F
:102EA0006846007C002824D0C84988222439097843
:102EB00011426FD0330003F0EFF936F2F1F1F0EF89
:102EC000EEEDEEECEBEAE9E8E7E6E5E4E3E3E3E385
:102ED000E3E3E2E1E0DFDEDDDCDBDAD9D8D7D6D52B
:102EE000D4D3D2D1D1D0D1D1D1D1D1D1D1D1CF5E42
:102EF000EE5EB648B1004058330001783970407832
:102F00007870BF1C03F0C8F9361C2F383D41EE47DE
:102F1000EE4B4F53565B5E696C75EDEDEE7FEDED5C
:102F20008193989BEFF3F7FBFFE7E6E5E4E3E2E14B
:102F3000E0DFDFDEDFDFDDDCDBDAD9D8D7D6EED5C8
:102F4000149B149A149914981B7FD27E897E407E1C
:102F5000009001A80EC014989EA1037EC27D384641
:102F600001F098FD8DE11498A2A1807D0090149845
:102F7000437D027DEBE0ECE3149AA1A13846521D9B
:102F8000FCE014986030C27802E014982030B8E079
:102F90009CA165E1DAE3149860308278F8E7149830
:102FA0004030427BF4E7149840300278F0E7149800
:102FB000413001E01498433041780078B0E0149833
:102FC0002130ABE01498149920300078C97F00912B
:102FD00001901498837F427F13E0149820300AE018
:102FE000149820300279C178019200918378427858
:102FF00007E014986030027AC179019200918379D8
:10300000427981A10FE0834AC2E7149840790028F1
:1030100067D014991498097FC07E0090149801918C
:10302000837E421D7CA1384601F034FD29E11498CD
:103030002330417B007B73E01498213069E01498C1
:103040006030017900292BD0407A002849D0149AA9
:103050006BA13846693291E04AE31DE373E30AE36A
:10306000FAE2D4E2C8E2AFE29EE28EE27EE26EE2F3
:1030700062E256E249E238E20EE201E2F1E1E2E127
:103080002FE2CBE1B5E1A9E190E183E173E166E1F3
:103090005AE14DE140E136E334E128E124E10DE17C
:1030A00014982030827B417B01920091037BC27A8D
:1030B000A7E7F6E0F0E0EBE0D4E0CAE0C2E07CE0B5
:1030C00073E067E063E05FE04FE044E038E033E066
:1030D0002DE028E020E01AE015E010E00BE006E02B
:1030E00001E04EE0DBE014984030827950E714981C
:1030F0004030C2794CE714984030027A48E714987F
:103100004030427A44E714984030827A40E714987D
:103110002330417C007C03E014982330417D007D06
:103120000A02024334E714982030427E30E71498B4
:103130003DA12030827E93E014988030C27E27E744
:1031400014988030C17F0091837F427F38A1384638
:1031500001F0A0FC95E014984030807B002810D04E
:10316000149A27A138464E3208E014984030007E69
:10317000002806D0149A22A13846583201F08AFC61
:103180007FE020222EA16BE08120000278E0412028
:10319000400275E00D48882124380078084201D0AB
:1031A00010206DE0432040026AE00848882124385E
:1031B00000780842F6D0202062E0044888212438B4
:1031C00000780842EED080205AE00000C0000020C5
:1031D0000D0A0000253032583A253032583A253051
:1031E00032583A253032583A253032583A25303262
:1031F0005800000025782E25782E25780000000044
:10320000257300002564000025642E25642E2564A6
:103210002E256400D60B000025732D25303278252D
:1032200030327825303278002530325800000000E6
:1032300025303258253032582530325800000000F1
:10324000256300001498FA494030407980000A58FC
:1032500005E014982030807A8100F6484258F6A1A3
:1032600038468BE7F348083801788820014299D026
:10327000149923314A7B0B7B1102194301290BD08E
:103280000443EE48044210D00020BF1E387043E2D1
:1032900014988030027F7BE62120C001F0E70022F5
:1032A00076E6212080020443D3E7E5A1384601F009
:1032B0006FFF384601F0FAFEC7192DE21498C07D61
:1032C000002807D11498007E082803D11498407E66
:1032D000DC2809D0149ADBA104A8173200F02AFCDC
:1032E000A2E18520000216E28320000213E200F032
:1032F000D8FB00990129F4D10128F2D81499603142
:10330000C87009E200F0CDFB00990129E9D103283A
:10331000E7D81499203118E100F0C3FB014600986A
:103320000128DED10129DCD8149860308170F3E1E6
:1033300000F0B7FB014600980128D2D10129D0D86E
:10334000149840304173E7E100F0ABFB009901298C
:10335000C7D10128C5D8149940310870DCE116AAFC
:10336000B9A104A801F0F8FCB84916988842B8D869
:10337000149941310AE016AAB3A104A801F0ECFCAB
:10338000B24916988842ACD8149943310870000AA3
:103390004870C1E116AAACA104A801F0DDFCAB495C
:1033A000169888429DD814992131F9E015A904A8EE
:1033B00000F014FB002894D010A8017D14984177E8
:1033C00010A8417D1498817710A8817D1498C17749
:1033D00010A8C17D1498203001709DE115A904A8A2
:1033E00000F0FCFA0028E6D0149810A9097D2030DE
:1033F0001EE015A904A800F0F1FA0028DBD014980B
:1034000010A9097D2030417010A9497D817010A953
:10341000897DC17010A9C97D01717DE115A904A83C
:1034200000F0DCFA0028C6D010A91498097D60309D
:10343000417110A9497D817110A9897DC17110A9BF
:10344000C97D017268E100990E2990D8202804D026
:10345000149A79A104A8521D16E11499002048710C
:103460005AE116AA78A104A801F076FC77491698CB
:10347000884288D8149923310873000A48734BE1B5
:1034800016AA71A104A801F067FC70491698884239
:1034900088D81499213174E015A904A800F09EFA87
:1034A000002811D01498002160300171149810A9DF
:1034B000097D2030C17210A9497D017310A9897D51
:1034C000417310A9C97DD4E01498012160300171C5
:1034D0006946097C202905D0149804A9693001F0B7
:1034E000BFFD19E10021417216E117AA58A104A8F5
:1034F00001F032FC00980228A7D810A8808B0D2874
:10350000A3D814994031887106E100F0CAFA0099F5
:10351000012900D0E5E60128FCD814994031C87192
:10352000FAE000F0BEFA00990129F3D10228F1D89F
:10353000149940310872EFE000F0B3FA00990129C4
:10354000E8D10128E6D8149940314872E4E000F04F
:10355000A8FA00990129DDD10228DBD8149940315D
:103560004A79012A00D100208872D5E016AA36A136
:1035700004A801F0F1FB354916988842CAD814997D
:1035800023310874000A4874C6E016AA2EA104A8C4
:1035900001F0E2FB2D4916988842BBD814992331DB
:1035A0000875000A4875B7E017AA29A104A801F018
:1035B000D3FB00980328ADD810A8808BFF28A9D88A
:1035C000149920314876A7E000980228A2D104A8D7
:1035D00000F04FFA00289DD017AA1EA104A801F000
:1035E000BBFB10A8808BC1B21498203081760029D3
:1035F00000D0012181778FE000F053FA0099012972
:1036000088D1012886D814998031C87684E0009842
:1036100006288AD104A800F02CFA0028DBD01499DF
:1036200004A89D3100F05BFA0028D4D074E095E046
:10363000C8010020A400002025730000B080000015
:103640000D0A00002E3A2D00256C6400FFFF0000DB
:103650002564000025780000009909298ED82028CB
:1036600004D0149ABBA104A84E320DE01498002196
:103670004030817350E0009909298ED8202806D067
:10368000149AB4A104A8583201F066FB44E01498DF
:103690000021403001763FE016AAAF4904A801F0AE
:1036A0005BFB19211698C902884205D9149900209C
:1036B000AB3101F030FE14E6149980B2AB3101F069
:1036C0002AFE14980121A03001724020044314986E
:1036D000149920300078C97F009101909F4A149876
:1036E0000292837F427F9EA1384601F0D3F913E016
:1036F00000F0D7F900990129DDD10128DBD8149910
:103700008031087708E000F0CCF900990129D2D186
:103710000128D0D800E0044320041DD50020A87063
:10372000FF2E02D09448B10045580120C003201A52
:103730000012810090482B46DC3042588FA1384659
:1037400001F0A8F910E081200002E4E743204002E4
:10375000E1E721208002DEE78AA1002001F040FCA1
:10376000050001D0FFF791FB204619B0F0BDF3B57D
:1037700099B0054600F090FE04467F4E0020243E9E
:10378000169030708048FDF7F5F800287ED022288A
:1037900026D17E48406A0204120C21D015A8009060
:1037A0001A9F17AB29460120FDF77BFC80B2281831
:1037B00000212038C17705A92846FFF70FFB2B28E9
:1037C0006BD1062272A105A801F01CFC002808D0CC
:1037D00021460622173105A801F014FC002803D069
:1037E00065E03078802101E030788821084330702E
:1037F000000652D5607E237FE27EA17E01AE0FC619
:10380000207E00905C48E37D8030C26A62A1384629
:1038100001F040F90A3505A928460A37FFF7DEFA14
:103820002C2844D16846007D202803D15820005D13
:10383000002806D02146583105A801F017FD0028C0
:1038400035D105A801F032FC021D2946384601F0A9
:10385000ABFC05A801F02AFC451905A82D1D01F0B7
:1038600025FCC419241D21462846FFF7FCFA1690B2
:1038700005A801F01BFC0546204601F017FC28189E
:103880000E3082B210A8808A48A300E008E00090C1
:1038900001201A99FDF757FB09E000201BB0F0BD8D
:1038A0002E4A0023521E02210120FDF7EDF8169842
:1038B000F4E770B500F0F0FD05463E493E48FFF7DD
:1038C00056FF0446000408D54035687B012803D123
:1038D00021463AA001F0D0F870BD002CFCD02007A2
:1038E00002D500F0E1FA0FE0E00602D500F0B6FEE6
:1038F0000AE0E00408D523A001F0BEF8002000F0A3
:10390000FAF9012000F0F7F9600607D5042000F06D
:103910006EFB8028E0D100F0A1FE01E02006DBD59F
:1039200000F0DBFA70BD144824384178002910D02B
:103930008288284B00219A4203D28288521C8280BE
:1039400000E081808288244B9A4202D30122827057
:1039500081807047257300004836000052C3000084
:10396000465725642E25642E25642E25643A256449
:103970003A25640D0A000000C000002025733A2596
:10398000730D0A000D0A00003000054600020546CE
:10399000FFFFFFFFFFFF00002573256325632563FD
:1039A0002563256325630D0A00000000FFFFFFFF6C
:1039B000000000000014002000120020203E2053D0
:1039C000454743503A4552524F523A253034580DEC
:1039D0000A000000FFFF0000983A0000F3B5002540
:1039E00083B02E462C46039801F060FBC7B200203E
:1039F00001900090F81F092839D22EE001F034F828
:103A000001680398405D095C202902D02E2811D05E
:103A10002DE00A214C43303C01198CB2FF2C26D8F2
:103A2000009901AA50540098401CC0B2009003288D
:103A30001DD810E0FF2C1AD8761CF6B2042E16D82A
:103A4000002401A801F0BFFA049989192039C87728
:103A50000020019000906D1CEDB2BD42CED301A8B4
:103A600001F0B1FA04998855012005B0F0BD00209D
:103A7000FBE770B5054600240CE000F0F5FF006898
:103A8000295D415C88004840000601D4002070BDDB
:103A9000641CE4B2284601F009FBA042EDD80120E5
:103AA00070BD10B50446112801D2FF2010BD00F0F2
:103AB000DBFF0168085D202805D0204628383F2814
:103AC00003D2513C08E0303C06E02046402C04D9AB
:103AD000472C02D90446313CE4B2204610BD70B5F3
:103AE0000E460546002401F0E1FAC1B2C80706D12E
:103AF000102904D82878002801D0002016E00020E2
:103B000070BD2A5C392A01D9373A00E0303AD3B285
:103B10002A185278392A01D9373A00E0303A1B0185
:103B200013433355641C801CE4B2C0B28842E8D30E
:103B3000012070BDF7B584B00546002401F0B6FA47
:103B40002978C0B2002901D0112802D0002007B086
:103B5000F0BD002601AF600020184119032268461D
:103B600001F022FB68468178002904D0059801F015
:103B70003FFA0028EBD068468670FFF77AFF0028EE
:103B8000E5D039196846FFF7AAFF641CE4B2062C99
:103B9000E1D3062201A9069801F006FB0120D6E731
:103BA000F8B50D46044601F081FAC0B2C10716D13E
:103BB000102814D82078002811D00026C1B26846F9
:103BC0000170617841702A4686706D1C05A101F074
:103BD000C3F8A078A41C0028F0D10120F8BD002073
:103BE000F8BD00002578000070B5314C25686617D7
:103BF0002660304EB047256070BD10B50021420CE4
:103C000016D02D4A904204D32C4A104201D11024E0
:103C100006E02A4A5242904209D3800C07D111246F
:103C200072B600231A462046FFF7DEFF62B610BDCB
:103C300012240146F4E710B5410C07D172B60023F7
:103C400001461A461320FFF7CFFF62B610BD70B5CC
:103C500014460A46184B1A49984208D3850C06D1D7
:103C6000FF250135AC420DD8E3188B420AD8002C51
:103C700001D1884206D801214904FF23411A5B0281
:103C8000994201D2002070BD72B62346014622201F
:103C9000FFF7AAFF62B6204670BD10B503460020AC
:103CA00002E01C5C0C54401C9042FAD310BD000092
:103CB00000E200E00110FF1F00FE03000001FCFF16
:103CC000FFFF030070B50D46144601000BD001291B
:103CD0000DD0022901D0032804D11A4621462846D6
:103CE000FFF7DBFF70BD062221462A48F8E71A4697
:103CF00021462948F4E7F8B5002818D0012818D043
:103D000002281AD0032817D12725ED020C270826F0
:103D1000002420034019FFF78EFF641CA4B2BC42AC
:103D2000F7D338034519002E06D000240EE01948B9
:103D300000E01948FFF761FFF8BD07252D03E5E70F
:103D400020024019FFF759FF641CA4B2B442F7D314
:103D5000F8BD70B51C460B46154601000BD0012975
:103D600010D0022901D0032804D122462946184642
:103D7000FFF76DFF70BD0020FFF7BDFF062229464B
:103D80000448F5E70120FFF7B6FF2246294602481E
:103D9000EEE7000000FE030000FF030035490020AD
:103DA000C860704770B5334C6088401C6080FFF776
:103DB000BAFD00F0E5F9304800250078002808D069
:103DC000E088401C80B2E080642802D3012020708B
:103DD000E5807D21C900608801F0A5FA002905D1A0
:103DE0006580A088401CA080FEF72AFD3C21A088A9
:103DF00001F099FA002903D1A580A068401CA060B9
:103E000070BD10B51B4CE068411CE160232803D352
:103E1000FFF7C8FF0020E06010BD30B5012417494E
:103E200085B020030860164D2846FCF759FAFCF7C8
:103E3000DDF97D21C90001F076FA009000200490A0
:103E400002900194694603942846FCF789FA0121FF
:103E50002846FCF79BFA2846FCF7ABFA05B030BDC4
:103E6000044880687047034880887047014840884C
:103E700070477047B80100209800002000E100E082
:103E8000001000401FB56846FCF73AFC694605483B
:103E9000FCF744FC1FBD10B5E1204002FCF7EEFC2E
:103EA00010BD000000D0004010B500F0F7FA00F09F
:103EB000D5FB10BD10B5C648FCF75CFD172808D02F
:103EC0001C2806D00220FCF7AFFD0120FCF7ACFD5A
:103ED00010BD0220FCF7FEFEF7E7FFF7EBFFBFF394
:103EE0004F8FBD49BB48C860BFF34F8FFEE7BB484B
:103EF0000021017081708180C1804170C170704764
:103F0000F3B581B000F0C8FA0646002004460090E0
:103F10000198A8368704B2483818FCF72BFDAF4D3E
:103F2000172808D002DC00285FD14FE018284DD0B8
:103F30001C285AD141E0AA4810383818FCF71AFD5D
:103F4000C00707D00120A870A548012108383818FB
:103F5000FCF712FDE878012833D0A2483818406AEF
:103F60000404240C41D00120C002844200D904463C
:103F7000F01C01F0BFF9E9680A19904201D2401A19
:103F800084B2224602990198FCF776FF84B2E86871
:103F9000210A0019E86068460170447002226946EF
:103FA0000198FCF7D9FE0027EF80F01C01F0A2F980
:103FB000E968884219D8AF80AF700198FCF78AFE93
:103FC00013E00198FCF786FE0020FEBD2023864A00
:103FD00001210198FCF758FD01460198814204D166
:103FE0000020E8600198FCF7BAFD2046FEBDF1B55F
:103FF0008AB000F051FA0646A83600F04DFA0546A0
:1040000030784535202700280FD0F01C01F072F9D8
:104010001922D202002801D0904209D9297A012917
:1040200003D10146714800F027FD40200BB0F0BDE0
:1040300027240A99E402042907D00A460721090324
:10404000022A4FD0032A48D03BE0297A012903D124
:10405000014667A000F010FD604900208860032041
:10406000FFF749FE5D480121017004466F490420B5
:10407000FFF746FF03000DD02720A168C0020918F2
:104080006A4A0320FFF765FEA16880B20818A060A5
:104090000020A0806078012809D0E07801280AD0AB
:1040A000F01C01F027F9A1688842DFD80AE0287ADD
:1040B00001285AD005E0287A012802D15CA000F03E
:1040C000DBFC4027F01C01F015F94449896888425F
:1040D00052D12A7A012A4AD04DE002220594009258
:1040E000079103E00322009207940591297A0129A0
:1040F00003D101465CA000F0BFFC384C0020A0605A
:104100000A98FFF7F8FD0120C002069001202070F8
:1041100060780128CBD0F01C01F0ECF80122A168F6
:10412000D2028A18904202D2401A80B206900798B2
:104130003E4A4118069B0098FFF7C4FD03041B0C80
:104140000CD00598A168394A41180A98FFF701FE7A
:10415000A16880B20818A0600020A080F01C01F0C7
:10416000C9F8A1688842D3D8ACE74FA0A7E70246B8
:104170005BA000F081FC8027FFF7B9FE384655E7C9
:1041800030B516487D230578614A9B010124002142
:10419000012D0CD18588954203D285886D1C8580C0
:1041A00000E0818085889D4201D3447081808578BC
:1041B000012D0CD1C588954203D2C288521CC28001
:1041C00000E0C180C2889A4201D3C470C18030BD72
:1041D000300009460400FA0500ED00E0D00100209F
:1041E000300001460002014652C300005466000040
:1041F000203E2053454743503A46575F555044416F
:1042000054453A4E4554574F524B202D2046697223
:104210006D776172652073697A653A205B25645D0C
:104220002062797465730D0A00000000000A002006
:10423000203E2053454743503A46575F555044412E
:1042400054453A4641494C4544202D204E657477EB
:104250006F726B20646F776E6C6F61642074696D30
:10426000656F75740D0A0000203E2053454743508A
:104270003A46575F5550444154453A464C4153489D
:104280002D746F2D464C415348202D204669726D88
:10429000776172652073697A653A205B25645D20D9
:1042A00062797465730D0A00203E205345474350E0
:1042B0003A46575F5550444154453A4641494C456A
:1042C00044202D204669726D776172652075706497
:1042D0006174652074696D656F75740D0A00000066
:1042E000203E2053454743503A46575F555044417E
:1042F00054453A53554343455353202D20256420BC
:104300002F2025642062797465730D0A0000000077
:10431000FFFF0000FEB50446022818D2594E650082
:10432000705B00900120694608715748A700C0598A
:10433000FCF781F85448715B801E025D801E005DB1
:10434000FCF754F95048715BC059FCF7F0F8FEBD1A
:1043500070B5012311249D03A4060022294620469E
:10436000FCF76CF9656170BD10B5012321200022B6
:1043700059024006FCF762F910BD10B50120FFF7A5
:1043800078FD42486121016341610122D20343204B
:1043900051100006FDF786FC0020FFF76AFDFFF7CD
:1043A000E3FFFFF7D5FF0020FFF7B4FF0120FFF781
:1043B000B1FF10BD36490220086336498860704756
:1043C00010B50121212049024006FCF79CF810BDE0
:1043D00010B5212464060123002202212046FCF7A7
:1043E0002DF90220606110BD70B5002421256D06F5
:1043F00002212846FCF787F8002801D0012070BD73
:104400000520FEF7B5FB641CE4B2052CF0D30020B8
:1044100070BD70470020704710B50121112089033D
:104420008006FCF770F810BD10B5022807D2154AB7
:104430004100515A144A80001058FCF786F810BD0C
:1044400010B5022807D20F4A4100515A0E4A800087
:104450001058FCF76CF810BD022808D20A498200F7
:1044600089584A68074B4000185A42404A607047D2
:1044700010B5044A4100515A034A80001058FCF715
:104480004CF810BD60640000E401002040300041A1
:104490004011004100200041FE487047F8B5FD4E34
:1044A000F920307000207070B0700125F57004465E
:1044B00030710F21701D00F0D4FE0A22F6A1701D8C
:1044C00000F072FE35757575B475C0217177A8223C
:1044D000B2770B23EF48F377022620300670417045
:1044E0008270C3700571FF2646718671C6710472B1
:1044F00044728572C17202734373EA4B032686735A
:10450000C11C0B731A0A4A73421C13741F0A577496
:104510000C74270A4F74E44F17753F0A5775FF2232
:10452000F5320A75120A4A7544768476C4760477A1
:1045300044778477C47720300570DC4A411C0A70C8
:10454000120A4A70C11C0B701A0A4A7044710C217D
:104550008171C571047244728472C47204734573AC
:104560000A21183000F07DFECA480A214E3000F0C2
:1045700078FEC848082160308470C47004714171AD
:104580008171C17101723221093000F06AFEC148A7
:104590002B218030C576047741778177C177BD4F75
:1045A0003F20A037387000207870B81C0670310AA0
:1045B00041703C71210A79710471210A41713C7288
:1045C000BB49401E0172090A417201460A310020AE
:1045D00000F0A1FE50203874002078743846133063
:1045E000BD741E21044600F03CFE1322B1A12046FA
:1045F00000F0DAFD384631302821044600F031FE63
:104600002022B1A1204600F0CFFDF8BD10B5FFF784
:1046100000FFF9239F4A00210120FFF753FB9D4C27
:10462000607821780002084302D0AF49884207D160
:10463000FFF734FFF923974A00210120FFF789FB98
:104640009449012020318872207560750020A07582
:10465000FFF7E0FE8F494031487110BD10B5F923D6
:104660008C4A00210120FFF774FB10BD10B500F04B
:104670009BFD10BD10B500F097FD10BD10B50446B0
:104680000146844806221730FFF7F4FF81480422D0
:10469000A11D1D30FFF7EEFF7E48214604220E319A
:1046A0002130FFF7E7FF7B48214604220A312530FD
:1046B000FFF7E0FF77482146042212316530FFF70B
:1046C000D9FF7448A17D6030012902D00121C17059
:1046D00010BD0021FBE710B56E49044606221731D4
:1046E000FFF7C4FF6B4904221D31A01DFFF7BEFF79
:1046F00068492046042221310E30FFF7B7FF654993
:104700002046042225310A30FFF7B0FF61492046D8
:10471000042265311230FFF7A9FF5E486030C0788F
:10472000002801D0022000E00120A07510BD30B5A6
:1047300089B0584D03A90120FDF78CF96846427CE9
:10474000017CC07B6B4607C36846837B427B017B51
:1047500066A000F091F928462330417B007B0902D6
:1047600001436846407D009001916846037DC27C0C
:10477000817C68A000F080F96846407F0090684620
:10478000037FC27E817E6CA000F076F96846407E91
:1047900000906846037EC27D817D6DA000F06CF9BB
:1047A00008A84078009008A803786846C27F817FF7
:1047B0006DA000F061F92C462034607A01282DD0DC
:1047C0006420415D601C0129417C0FD0027C0802FD
:1047D000A17B104301900091637B227BE17A68A06A
:1047E00000F04AF9607A032809D017E00A02007C39
:1047F0002946024369316DA000F03EF90EE0E07AEF
:10480000002808D1207B002805D1607B002802D138
:10481000A07B002807D06FA000F02EF96CA000F05C
:104820002BF909B030BD70A0F6E710B5194C7348EC
:10483000E17DFCF7A1F87148217E401EFCF79CF851
:104840006E48617E801EFCF797F86C48A17EC01E02
:10485000FCF792F86948E17E001DFCF78DF8674887
:10486000217FC01CFCF788F810BD10B5094C86B03C
:104870002146062217316846FFF7F8FE214601A8B7
:1048800004221D310230FFF7F1FE042221462131BE
:1048900003A8B5E00016002057495A373530445573
:1048A0004F00000088130000B80B0000581B0000E8
:1048B00052C300006465766963652E77697A77690B
:1048C0006B692E6E657400002F77697A3735307307
:1048D000722F66772F5737353030785F5332455F08
:1048E0004170702E62696E00FFFF00002023204D92
:1048F00041433A20253032583A253032583A253053
:1049000032583A253032583A253032583A2530322A
:10491000580D0A002023204950203A2025642E25D6
:10492000642E25642E2564202F20506F72743A2047
:1049300025640D0A000000002023204757203A205C
:1049400025642E25642E25642E25640D0A000000A2
:10495000202320534E203A2025642E25642E2564E2
:104960002E25640D0A000000202320444E533A20D7
:1049700025642E25642E25642E25640D0A00000072
:1049800020232044657374696E6174696F6E2049D9
:10499000503A2025642E25642E25642E2564202F70
:1049A00020506F72743A2025640D0A0020232044A1
:1049B000657374696E6174696F6E20446F6D6169AF
:1049C0006E3A202573202F20506F72743A20256490
:1049D0000D0A00002023232055445020313A312075
:1049E0004D6F64650D0A000020232320554450209C
:1049F000313A4E204D6F64650D0A00000360004699
:104A00000230FFF733FE214602A80422253102308E
:104A1000FFF72CFE214604A8042265310230FFF77F
:104A200025FE6034E078002801D0022000E001205B
:104A3000694688750020FDF70DF806B010BD0848DE
:104A40000121C170704706480021C17070470146BE
:104A5000034810B50622493800F0A6FB10BD00003F
:104A6000601600207047000010B501F01BF8001D13
:104A700010BD00BF4D1800000FB4054910B503AAC2
:104A8000029801F0A3F810BC08BC04B0184700005D
:104A9000940000200FB41CB5074B06AA7B4469465E
:104AA0000090059801F063F80020694601F072F863
:104AB0001CBC08BC04B01847F510000070B50446D3
:104AC00085690068C10601D5302600E02026C007B0
:104AD00007D070BD62683046A1689047206A401CCC
:104AE00020626D1EF6D570BD70B5044685690078EC
:104AF000C00707D170BD6268A16820209047206A76
:104B0000401C20626D1EF6D570BD70B50C46054682
:104B1000012A05D02878800600D5EA69002302E042
:104B2000012305E05B1C934202D2E05C0028F9D12E
:104B3000A869E618C01AA861286AC0182862284621
:104B4000FFF7BCFF04E06A682078A968641C9047FE
:104B5000B442F8D32846FFF7C7FF70BDF7B500256C
:104B600075291068009914A611D0C046C0460028C7
:104B700002DA404211A608E0009909688A0701D5C7
:104B80000FA602E0490704D50EA6012501E0C046A4
:104B9000C046009F0024243704E001F0D1F83031F2
:104BA0003955641C0028F8D12B463246214600981E
:104BB00000F080FFFEBD0000000000002D0000009E
:104BC0002B0000002000000070B504460D46214671
:104BD0001068C046C0462188090502D50F4A7A44AC
:104BE00002E00E4A7A440E3223460021243305E0C7
:104BF00006070009360F965D5E54491C0028F7D160
:104C000020780023000705D5702D03D0002901D09E
:104C100002231132204600F04DFF70BD82180000C3
:104C2000F3B50446002081B020622046E168884741
:104C300000287DD0252802D06268A16883E0454F16
:104C400000257F442046E16888472028064608DB87
:104C5000312E06D2B81920380078002801D005433B
:104C6000F0E7A80701D5042085430020E06107464E
:104C7000A0612A2E0AD0304601F01BFB002827D065
:104C8000B8000019303E0090866119E00298BA0021
:104C9000121902C8916102902046E1688847012FED
:104CA000064617D1E06900281FDA202085431CE062
:104CB00000980A218069484300998019303888613A
:104CC0002046E1688847064601F0F3FA0028EFD154
:104CD000012F0AD02E2E08D12046E16888470646CB
:104CE000202005437F1C022FC3DBA069002803DAC4
:104CF0004042A06101200543E80701D01020854310
:104D0000002E24D030464138192803D80120C00293
:104D100005432036204625603146029A1546FBF7AA
:104D2000F3F900280CD0012807D0ED1DE80800E0B9
:104D30000DE0C0000830029077E72D1D029574E762
:104D400062683046A1689047206A401C6CE7206A80
:104D5000FEBD0000461800000FB400B58DB010A9CC
:104D600009900B900020C04300910A9000200C9005
:104D7000074878440690074878446A4607900F9998
:104D800009A800F04DFF0DB008BC04B018470000A2
:104D9000CF0E0000E90E0000FFB51D460027FF43BF
:104DA00083B05C68002001909E68A96904987F1C0C
:104DB00088470090296A88470028F6D10098401C4F
:104DC0000CD0032040028443002E19DD600614D568
:104DD00000982B2809D02D280FD103E00020C043D4
:104DE00007B0F0BD012080020443A96904987F1C2C
:104DF0008847761E002E009002DD0098302803D0F0
:104E00000598002825D035E00120A9694002044317
:104E1000761E04987F1C8847002E009003DD7828BA
:104E200005D0582803D00598002810D022E0059816
:104E3000002801D010281DD10120A9694002844317
:104E4000761E04987F1C88470090102002E00820FE
:104E500000E00A2005900DE00121059A49020C436B
:104E60000199761E514308180190A96904987F1C86
:104E700088470090002E05DD0599009800F0BAFEE5
:104E80000028E9DAE96904988847A00502D40120DE
:104E9000C043A5E7E00722D1600611D5600501985F
:104EA00000D5404229680A1D2A600968220501D5FB
:104EB000087014E0220701D5088010E008600EE0B9
:104EC0002868011D29600068210502D5019901703B
:104ED00005E02107019901D5018000E00160384615
:104EE0007EE7FFB5144683B000200026009050688E
:104EF000019091699768049888470C99054606982F
:104F0000084305D009E0A1690498761C8847054646
:104F1000216A284688470028F5D1681C03D00198EB
:104F2000C00704D017E00020C04307B0F0BD2068E0
:104F3000011D2160006800900DE00198C00704D1B8
:104F4000009805700098401C0090A169761C049898
:104F50007F1E88470546002F1CDD681C1AD0069866
:104F600000280FD0E817C00E4019411140098A00EF
:104F70000699400151182A1A0968012090400142FF
:104F8000DBD107E00C980028D7D12846216A884752
:104F90000028D2D0E1690498884701980C99C0078D
:104FA000C00F084302D1009800210170A068B842E8
:104FB00004DD0C98002804D0002F02D00120C0434B
:104FC000B3E73046B1E770B5064600F06FFD046800
:104FD000054630460A22002100F056FE2C6070BDC6
:104FE00010B5024A00F088FE10BD0000EC01002060
:104FF000401ECAB24178401C8A4202D00029F9D131
:1050000000207047034610B50B439B070FD1042ABD
:105010000DD308C810C9121FA342F8D018BA21BA7C
:10502000884201D9012010BD0020C04310BD002AD4
:1050300003D0D30703D0521C07E0002010BD037833
:105040000C78401C491C1B1B07D103780C78401CB2
:10505000491C1B1B01D1921EF1D1184610BD000046
:10506000034670B502460B439B070FD10E4CE60179
:1050700000E008C208C91D1B9D433542F9D0D9B2D2
:105080001170521C00290DD01B0AF8E70B78491C3F
:105090001370521C002B05D00B78491C1370521C46
:1050A000002BF3D170BD00000101010130B5441C9B
:1050B00003E00178401C00290DD08107F9D10B4B8A
:1050C000DD0104C8D11A91432940FAD0001B0A0619
:1050D00003D0C01E30BD001B30BD0A0401D0801EAD
:1050E00030BD0902FCD0401E30BD000001010101AD
:1050F0000346F0B50B439B072DD1244DEF01042A45
:1051000029D308C810C95E1B9E43121F3E4017D00A
:10511000D8B2E1B2401A3106014310D198B2A1B21F
:10512000401A310401430AD118022102000A090A77
:10513000401A3102014302D1180E210E401AF0BD6F
:10514000A342DCD018BA21BA884201D90120F0BDAF
:105150000020C043F0BD002A01D10020F0BD03783B
:105160000C78401C491C002B0DD0A3420BD1521EC1
:1051700009D003780C78401C491C002B03D0A342B3
:1051800001D1521EEBD1181BF0BD0000010101013D
:10519000421E5378521C002BFBD10B78491C137014
:1051A000521C002BF9D17047F8B5042A2CD3830781
:1051B00012D00B78491C0370401C521E83070BD081
:1051C0000B78491C0370401C521E830704D00B78D7
:1051D000491C0370401C521E8B079B0F05D0C91A37
:1051E000DF002023DE1B08C90AE0FAF7C7FFF8BD7D
:1051F0001D4608C9FD401C46B4402C4310C0121F78
:10520000042AF5D2F308C91A521EF0D40B78491CAF
:105210000370401C521EEAD40B78491C0370401CDA
:10522000012AE4D409780170F8BD01E004C0091F27
:105230000429FBD28B0701D50280801CC90700D04E
:105240000270704700290BD0C30702D00270401CC7
:10525000491E022904D3830702D50280801C891EBF
:10526000E3E70022EEE70022DFE70000024670B528
:105270000A4392072AD11E4DEE0104C808C9541BE7
:105280009443344017D0D0B2D9B2401A210601431A
:1052900010D190B299B2401A210401430AD11002F0
:1052A0001902000A090A401A2102014302D1100E14
:1052B000190E401A70BD9A42DFD010BA19BA88424E
:1052C00001D9012070BD0020C04370BD02780B7869
:1052D000401C491C002A09D09A4207D102780B7859
:1052E000401C491C002A01D09A42EFD0D01A70BD50
:1052F000010101010378C2781946437812061B02A6
:1053000019438378C0781B04194311430902090A21
:10531000000608437047020A08704A70020C8A703F
:10532000020ECA707047002203098B422CD3030A75
:105330008B4211D300239C464EE003460B433CD4E2
:10534000002243088B4231D303098B421CD3030A4A
:105350008B4201D394463FE0C3098B4201D3CB017A
:10536000C01A524183098B4201D38B01C01A5241AA
:1053700043098B4201D34B01C01A524103098B42AE
:1053800001D30B01C01A5241C3088B4201D3CB0099
:10539000C01A524183088B4201D38B00C01A52417C
:1053A00043088B4201D34B00C01A5241411A00D22C
:1053B00001465241104670475DE0CA0F00D0494295
:1053C000031000D34042534000229C4603098B4205
:1053D0002DD3030A8B4212D3FC22890112BA030A8D
:1053E0008B420CD3890192118B4208D3890192110F
:1053F0008B4204D389013AD0921100E08909C30994
:105400008B4201D3CB01C01A524183098B4201D395
:105410008B01C01A524143098B4201D34B01C01A80
:10542000524103098B4201D30B01C01A5241C308F8
:105430008B4201D3CB00C01A524183088B4201D367
:105440008B00C01A5241D9D243088B4201D34B0082
:10545000C01A5241411A00D20146634652415B10C4
:10546000104601D34042002B00D5494270476346A5
:105470005B1000D3404201B50020C046C04602BDCB
:105480007047704770470000F0B50C46871A9C4182
:105490000D46861A9D4103D2C01BA141D21963411A
:1054A0000D0D1F0DC74EEC1BAE435CD07F057F0D6D
:1054B0000026002F51D02D05AC46A943DD02012363
:1054C000ED0A1B051D4320231B1B24D41746E74070
:1054D000381871412F46E740CC199D4028183146B5
:1054E00061410C0D27D161449A4013D50023401C23
:1054F000594152000ED14008400001224B00520594
:10550000D34207D305204007C14201D5AE4900E090
:10551000AE493046F0BD6B00002A00D001229A1837
:105520001F23203C1B1B01D5002302E0E540281867
:1055300071410C0DD7D0012424050919C407CD07EA
:1055400040084908E40F28436144002CD5D00024CA
:10555000401C61419A40D0D1CDE76A05520DD9D1A6
:10556000C90FC907D5E79A4D4E00002801D0012484
:1055700000E0002434195F00002A01D0012600E079
:105580000026BE19934FAC420CD8AE420AD8B442A2
:1055900006D001256D05EC42BCD010461946F0BD81
:1055A0009942FCD000203946F0BDF0B51FB40C463E
:1055B0000F46811A9F412546861A9D4106D2012534
:1055C000ED076F40401ABC4152187B41210D1E0D62
:1055D0008D1BAC467B4D8D437ED075056D0D7CD00B
:1055E0000D05AE46AC431B031B0B774D52429D414C
:1055F000202366469B1B14D31746F7403818002615
:105600000090744160462F460741E41900989D4080
:105610002818664116D4714671189A4025D5012381
:1056200020E093182A466A415200002B00D0521CF9
:105630001E23203E9B1B002B61DD3541EE172818F1
:105640006641E8D5001876415B1C9A4000D3401CA7
:105650004B05F3181524E34010D3002B52D07146AC
:105660007118D30FC01802D3491C05B0F0BD012337
:10567000DB079A42F9D140084000F6E701225205C3
:10568000B21801D1002853D00123CC0ADB02994380
:10569000891E002A08D1020C03D0020C0004103924
:1056A00002E00246002020390023550B05D11202EA
:1056B0000823550B01D152010D23550C01D11201C4
:1056C0001B1DD50C01D192009B1C150D01D1520060
:1056D0005B1C2025EE1A01E02CE022E00546F54097
:1056E00015439840CA1AE10769181305C918002A1A
:1056F000BBDA032040070818C10FC9070FE0714645
:105700006118B2E7F10740080843711071444A007C
:105710000CD001235B059A42A7D2C90FC90700200C
:10572000A3E74905490D26D1002001E00028F4D166
:1057300000219AE7264D6600002801D0012100E0F3
:10574000002171185F00002A01D0012600E0002628
:10575000BE19204FA94210D8AE420ED8B14208D08F
:1057600001256D05E94206D01946A80241401046C0
:105770007BE79C4201D0214677E70020394674E759
:1057800030B40C465C4004D50124E407634030BCCF
:105790000BE730BC78E630B40C465C4004D50124FD
:1057A000E407634030BC6FE630BCFEE630B4012451
:1057B000E40761400D465D4001D430BC64E66340BF
:1057C00030BCF2E6FF0700000000F0FF0000F07FB1
:1057D0000000E0FF0000F87FCB02420D10B51A4335
:1057E0000B1504D00124E4072243002B06DB0A4CEE
:1057F000E31A05D41046D840FF2B00DD002010BD71
:105800004A00002800D00120101801225205D04281
:10581000F4D8C817C04310BD1E0400000121C905FB
:105820000123411842001B06D3185B0E0AD0C11099
:105830000722D206891840075242D14201D55200B0
:1058400089187047090208D50146002A03D0C10F04
:10585000C9070020704710467047420202D000205E
:1058600002497047072109050143F4E70000F87F6A
:1058700070B5FF242404C609FF25264001352E43B8
:10588000C209CB090546224023404D40002A6BD077
:10589000002B69D0A24267D0A34265D0002D00DA68
:1058A00032460124E4052143204309020002090A8B
:1058B000D21A000A4B0C7F24E31A434C7C44E35C6D
:1058C0007D242404121914145B00A218884201D309
:1058D000521C00E0400049420C465C4324115C43EA
:1058E000DB016415E318040A5C43C502200D0C4675
:1058F00044436419250A5D432303EC0C0D466543BC
:1059000000030019EB184C42A34201D35B18401C62
:10591000D4052018002B07D05B00C91804D3401C05
:10592000002901D1400840003F2189048A4209D35F
:10593000002A08DC1106090F04D00321490740188A
:10594000C00FC00770BD01224100120689187F22D6
:1059500052069142F6D205214907C84201D590105E
:1059600070BDFF20C00570BD002D00DA3246174E15
:10597000A24207D2A34205D21802000E17D0E80FA8
:10598000C00770BDFF2443002406A34216D8490077
:10599000A14213D8A34201D1A1420FD0A14201D10B
:1059A000002101E041004908D005084370BD100204
:1059B000000E03D0FF200243D00570BD304670BDFD
:1059C00048404140484053E7DD0B00000000C07FE5
:1059D00001460002CA1504D00123DB071843002A40
:1059E00009DB9E239A1A01D4D0407047FF22480059
:1059F0001206904201D900207047C817C043704773
:105A00001F22030C02D10F2200041CD0030E01D16F
:105A10000002083A030F01D10001121F830F01D1C8
:105A20008000921E002801DB4000521ED205511852
:105A3000021251181922904004D3491C002801D1A8
:105A40004908490008467047C10FC90700D04042C5
:105A5000012292071143D3E701218907D0E7000013
:105A600010B5FF22C30D134009D05A4007D0914210
:105A700005DA5C42A14202DDC905081810BDC40F59
:105A8000E407002B06D0002A06D0002902DBFF2005
:105A9000C0050443204610BD4102FCD0004810BDA3
:105AA0000000C07F004870471C1700200048704766
:105AB000FC160020FFB504460D4681B0243000904E
:105AC0002168880604D51022E0699143216000E036
:105AD0000120A84201DD471B00E000270498A169CE
