:020000040000FA
:1070000070350020F17100007D9D00007F9D000023
:107010000000000000000000000000000000000070
:10702000000000000000000000000000819D000042
:107030000000000000000000839D0000859D00000E
:107040008D9D00008F9D0000919D00009B9D000084
:10705000A59D0000A79D0000A99D0000AB9D00001C
:10706000AD9D0000AF9D0000B19D0000B39D0000EC
:10707000B59D0000BD9D0000BF9D0000C19D0000AA
:10708000C39D0000C59D0000C79D0000C99D000074
:10709000CB9D0000CD9D000003720000CF9D00003D
:1070A000D19D0000D39D000000F002F800F059F8D7
:1070B0000CA030C8083824182D18A246671EAB460D
:1070C00054465D46AC4201D100F04BF87E460F3E7F
:1070D0000FCCB6460126334200D0FB1AA246AB467F
:1070E0003343184798A30000B8A3000000230024EE
:1070F00000250026103A01D378C1FBD8520700D3EF
:1071000030C100D50B60704710B5642902D108F07A
:107110002BFA10BD752902D108F026FA10BD782986
:1071200002D108F057FA10BD632902D109F0E6FA3E
:1071300010BD732902D109F0E9FA10BD002010BD7D
:107140001FB5C046C04608F09DFC09F04FFA040088
:107150000020002109F058FE401C60601FBD10B5E2
:1071600010BD09F0EDFD1146FFF7EAFF03F05EFAEE
:1071700009F005FE03B4FFF7F2FF03BC02F041FE85
:1071800030B40C490C684A6823681068C018106055
:10719000241D121D8C4207D28A4208D20C604A601C
:1071A00030BC4000400870470C00DC3CF6E70A00A9
:1071B000DC3AF3E70429002070B505460C46164674
:1071C00002E00FCC0FC5103E102EFAD2082E02D3CB
:1071D00003CC03C5083E042E07D301CC01C5361FDE
:1071E00003E021782970641C6D1C761EF9D270BDF5
:1071F0000748804707480047FEE7FEE7FEE7FEE74F
:10720000FEE7FEE704480549054A064B70470000C3
:107210003B720000A970000070290020703500202A
:10722000702D0020702D00203648006870473548CA
:10723000406870473448006A704710B53348816B26
:10724000334A1161C16B30484160002101624169DC
:107250008907CA0F012191404269D207D20F91409C
:10726000CAB2416940698904890E51438002294AA2
:10727000800E504308F0FBFD2249086010BDF8B5B0
:10728000254F0126204D01280FD000202862214CD7
:107290001046214608F0EBFDC0B2012808D8EE6187
:1072A0006F6101210A46134619E02E620C46EFE792
:1072B0000021E961FF2101318006800A08436861ED
:1072C00068698007C00F86406869C007C00F8640A4
:1072D0006869F2B28004810E68698002830E2046DC
:1072E000084C51436060584308F0C1FD2060F8BD70
:1072F00030B4064B9C6B064D2C61DB6B024C63601B
:1073000030BCBCE7000000200010004180FD0300FD
:107310000012004100127A0000010200412109061A
:10732000002801D0032000E00120086070474121BF
:1073300009064860704701204121090688607047AE
:1073400041200006C06880B270474121090600282C
:1073500000D0022008617047412000060069000645
:10736000000E00D00120704701204121090608616C
:1073700070470020D2E700B50120FFF7CFFF0020C3
:10738000FFF7E3FF00BD00003F4A3F4B0121803281
:10739000984201D1116070473B4B2033984201D194
:1073A00011627047394A394B80329842F2D0374BDC
:1073B00020339842F4D07047334A334B0121C943FC
:1073C0008032984201D1116070472F4B2033984290
:1073D00001D1116270472D4A2C4B80329842F2D075
:1073E0002A4B20339842F4D0704781688022914321
:1073F0008160704781688022914381600021016033
:107400002022826081617047826880239A43826073
:107410000A68026082684B689B0113438A68920085
:107420001A43CB6809695B0013431943EF221140EB
:107430008160704720220129816802D091438160D8
:1074400070471143FBE70121C16070474069C0B23A
:10745000704780688006C00F7047816880221143A2
:1074600081607047006870470160704740687047EE
:107470008068704781607047006970474069704755
:107480008069704781617047001000400020004013
:1074900070B51024002101604160BF4A4261426220
:1074A0008162426321225206904202D1BB4BBC4A08
:1074B0000CE043221206904204D1B84BB84A403344
:1074C000403203E0B54BB64A80338032002060265C
:1074D00085005E515151401CA042F9D370BDF0B5FA
:1074E0002122002310265206904201D1AB4A08E027
:1074F00043221206904202D1A84A403201E0A74A34
:107500008032012425460F689D402F40AF4243D171
:107510000F79012F0DD045614D79AD070DD59C0038
:107520001559AD08AD001551155902273D431551A8
:107530000BE007692F430761EEE79D005759BF082D
:10754000BF0057515759274357514C79640704D509
:107550009C00155904273D4303E09C00155904275E
:10756000BD4315514C79A40604D59C00155920271C
:107570003D4303E09C0015592027BD4315514C792C
:10758000640604D59C00155940273D4303E09C0048
:1075900015594027BD4315515B1CB342B1D3F0BD13
:1075A0007D490160002101716221417170470246ED
:1075B000126800200A4200D001207047006880B2A3
:1075C00070470246526800200A4200D001207047EE
:1075D000406880B270470A06920D012312189B0280
:1075E000D21811600A0A920010185A00801801601F
:1075F000704710B50B069B0D0124CA431B18A4024B
:107600001B191A60090A89000818610040180260F5
:1076100010BD10B50B069B0D01241B18A4021B19ED
:107620001A60090A8900081861004018026010BD3C
:1076300041607047836A0B438362012A03D0426A28
:107640000A4342627047026A0A4302627047524A22
:107650008262012901D04262704702627047012AAA
:1076600003D0426B0A4342637047026B0A430263D2
:107670007047494A012901D042637047026370474D
:107680004549816370470246926B00200A4200D050
:1076900001207047F0B50126414D002334469C403F
:1076A0000C420ED0002810D0012811D03C4C9F0075
:1076B00080343C192768BF08BF002760276817433C
:1076C00027605B1C102BE9DBF0BD9C006419F1E71F
:1076D0009C006419276CBF08BF002764276C174300
:1076E0002764EEE77CB504461E460D466846FFF764
:1076F00057FF68460095027169462046FFF7EFFE86
:1077000021204006844201D1002006E043200006EB
:10771000844201D1012000E0022032462946FFF7D1
:10772000B9FF7CBD7CB5044616460D466846FFF79A
:1077300037FF00206946009508712046FFF7CFFE0D
:10774000206A28432062A06A2843A0623246294664
:107750002046FFF784FF21204006124E844206D1C6
:10776000002001222946FFF795FF802012E04320E8
:107770000006844207D1012002462946FFF78AFF0E
:10778000FF20013006E0022001222946FFF782FF98
:107790000120400230607CBDFFFF0000003000414E
:1077A0000020004100E100E0E12149020160602188
:1077B00081800021C18003220181120242818181E6
:1077C00070477047F8B50446006B0E46400840000D
:1077D0002063FFF72FFD8B4F0125002846D03D6128
:1077E000FFF722FD7A692946914008F040FB0746E1
:1077F0003068000108F0D4FE0090384608F0D0FE52
:10780000009908F0D9FD074608F086FE009008F0C0
:10781000C7FE394609F054FB062108F0C5FE08F002
:10782000A1FD0022784B08F04FFD08F079FD0146DC
:1078300000986062A162E06AEE218843B188F28814
:10784000114332890243E06A11430843E062206B2E
:107850006E49B2890840718911430143206B084386
:107860002063206B284320630020F8BD022038618C
:107870007869294681406648B7E710B5C36A102485
:107880002343C3624907890E5207520F11434163D4
:1078900010BDC16A10229143C162704701607047F8
:1078A000006880B27047C16A01221143C16270470B
:1078B0000246526800200A4200D001207047416011
:1078C00070470246926900200A4200D001207047AA
:1078D000002A03D0826B0A4382637047426C0A43DA
:1078E000426470470246126C00200A4200D0012018
:1078F0007047426C0A4342647047704710B50446B3
:107900004448016B02290AD0006B032807D0FFF717
:107910008BFC214608F0ABFA3F49086110BDFFF728
:1079200086FCF6E710B5FFF7E9FF3B4988680322BC
:107930008008800010438860002010BD36494A68E6
:10794000D207FCD1086070473348006880B27047A6
:10795000314A0146526800200A4200D00120704797
:107960002D4A0029916801D0014300E081439160D4
:107970007047294A0029916801D0014300E0814302
:1079800091607047244A0146D26800200A4200D024
:10799000012070472049CA680243CA6070470160ED
:1079A00082691207FCD40846704730B50B4605467D
:1079B0001C78002C03D021462846FFF7F0FF5B1C03
:1079C000002CF5D130BD8169C906FCD40068C0B275
:1079D000704700B50346FFF7B1FF184600BD10B56C
:1079E00003461C78002C02D02046FFF7A7FF5B1C43
:1079F000002CF6D110BD084841688907FCD5006805
:107A0000C0B27047401100410000E03FFE3CFFFF64
:107A100000127A00001000410060004000787047BA
:107A20000170704730B5002405E00D19ADB2455D19
:107A30001555641CA4B29C42F7D330BD70B5002428
:107A400005E00E19155DB6B28555641CA4B29C42C2
:107A5000F7D370BD70B514000FD01A4A83049E1876
:107A6000F268400795B2184AC00A10430A462346F6
:107A70002946FFF7E3FF2819F06070BD70B51400C8
:107A80000FD0104A83049E18B26A400795B20F4A7D
:107A9000C00A10430A4623462946FFF7C3FF2819A8
:107AA000B06270BD10B500290BD0064A83049B1844
:107AB0009A6A4007054CC00A5118204389B2081839
:107AC000986210BD00020146000002460000034615
:107AD00070B50446082802D90020C04370BDFA489A
:107AE000A604301805461021FFF79AFF2846FFF735
:107AF00095FF0028FAD1F4481F2118303018FFF7FD
:107B00008FFFF24801218288A1408A438280F04A97
:107B1000002061005052ED49891D0855EA48203087
:107B200034182046FFF77AFF0028FAD1012070BDF3
:107B3000F8B51C4616460F460546082802D900200F
:107B4000C043F8BD012F06D0022F04D0042F02D06D
:107B50000420C043F8BD6007810FDE48FAD1002C35
:107B60000CD0012F02D0022F08D103E021210C42BA
:107B7000F0D003E0A10601D52106EBD52846FFF79A
:107B8000A7FF21090901D0483943AF04103838183C
:107B9000FFF746FF002E0AD1CC48CF4A0688711C59
:107BA00089B20180914202D1032189030180C64834
:107BB000F03038184661C448012138180646FFF7EE
:107BC0002FFF3046FFF72AFF0028FAD1BF48E10710
:107BD000C90F4288A9401143418001218288A940F0
:107BE0008A438280BA4A002069005052B749891DF1
:107BF0004855B54820303C182046FFF70FFF0028B5
:107C0000FAD068B2F8BD70B50646082802D900203F
:107C1000C04370BDAC48B40410382018FFF7FEFE16
:107C20000007000F012802D00420C04370BDA64801
:107C3000203020180546FFF7F1FE132802D002205D
:107C4000C04370BDA048022120180446FFF7E8FE9B
:107C50002046FFF7E3FE0028FAD12846FFF7DEFEB4
:107C6000142805D03046FFF733FF0320C04370BD12
:107C7000012070BDF7B50D460746082802D900203F
:107C8000C043FEBD9048BC0410382018FFF7C6FE64
:107C90000007000F012802D00420C043FEBD8A481F
:107CA000203020180646FFF7B9FE132802D0022024
:107CB000C043FEBD29786A7808028018AA780002BD
:107CC0008018EA7800028018421C32D0002830D098
:107CD0000298002830D081482018FFF7A1FE7F4885
:107CE0006978401E2018FFF79BFE7C48A978801E0B
:107CF0002018FFF795FE7948E978C01E2018FFF795
:107D00008FFE764902982739611808626E4804216F
:107D100020180546FFF784FE2846FFF77FFE00285F
:107D2000FAD16A4901204988B84008421CD0002095
:107D3000FEBD0B20C043FEBD0A20C043FEBD284649
:107D4000FFF76CFE000708D55F480821183020189F
:107D5000FFF766FE0C20C043FEBD3046FFF75EFE17
:107D6000002804D1001FFEBD5748103025183046AA
:107D7000FFF754FE1728E2D10120FEBD70B506467C
:107D8000082802D90020C04370BD4F48B504103800
:107D90002818FFF743FE0007000F012802D0042037
:107DA000C04370BD4848082128180446FFF738FE34
:107DB0002046FFF733FE0028FAD1444901208A8883
:107DC000B04082438A80498808420CD0002070BDB0
:107DD0002046FFF723FE00070BD53046FFF778FE5D
:107DE0000C20C04370BD384810302C183648203065
:107DF0002D182846FFF712FE0028E9D1012070BD9A
:107E0000F7B582B002981446082803D90020C04371
:107E100005B0F0BD86042C4810383018FFF7FEFD81
:107E20000007000F012802D00420C043F0E7002C17
:107E30000CD02548203030180190FFF7EFFD1728AF
:107E400007D01C2805D00620C043E1E70D20C04321
:107E5000DEE7029801251D4F8540B888054211D004
:107E6000194810303018FFF7D9FDC006C00EC10602
:107E700021D51548102118303018FFF7D1FDB888EA
:107E8000A843B8801548D93030180090FFF7C6FDD8
:107E90008006000C844200D904460098406887B2EE
:107EA0000198FFF7BBFD17281AD01C2818D002989C
:107EB000FFF70EFEC7E7000718D50298FFF708FE88
:107EC0000C20C043A4E70000100001460800002079
:107ED0001C030020FAFFFFFFF0FF0000270101460E
:107EE000FE484088054203D0BC4201D900208FE7FC
:107EF000BC42D2D8224603990298FFF7ABFDF8485E
:107F0000202130180646FFF78BFD3046FFF786FD2F
:107F10000028FAD1F14881880D438580204677E713
:107F2000F7B582B002981446082802D90020C04351
:107F30006EE78704EA4810383818FFF76FFD00072E
:107F4000000F012802D00420C04361E7002C19D0A3
:107F5000E4483818FFF762FD8006000CA04200D20A
:107F60000446DF48203038180090DE4820383E189C
:107F7000706A85B20098FFF751FD172815D01C28AC
:107F800003D00CE00D20C04342E7002D1AD130464B
:107F9000FFF744FD7168800289B2884205D10298DA
:107FA000FFF796FD0620C04332E702990120884082
:107FB000CA494988084203D0002D03D1002027E791
:107FC000002DD5D0A54200D22C4622460399029816
:107FD000FFF754FDC248402138180546FFF720FD41
:107FE0002846FFF71BFD0028FAD1204610E7FFB511
:107FF00083B003981E461546082803D90020C043C5
:1080000007B0F0BD8404B64810382018FFF706FD0D
:108010000007000F022804D0042802D00420C04327
:10802000EEE7002D1DD03078717800024018B1784D
:1080300000024018F1780002C84202D10B20C04370
:10804000DEE70C9800280FD0A548203020180746FE
:10805000FFF7E4FC42280AD0222808D00620C043BB
:10806000CEE70D20C043CBE70A20C043C8E79D48B8
:108070003178F9382018FFF7D3FC9A487178FA382C
:108080002018FFF7CDFC9748B178FB382018FFF790
:10809000C7FC9448F178FC382018FFF7C1FC9049E0
:1080A0000C98F031611808628E4820382018019031
:1080B000FFF7B4FC8006000C854200D90546039901
:1080C0000120884000900198406886B23846FFF74A
:1080D000A5FC002808D0814900984988084206D0AC
:1080E000B54204D900208BE70320C04388E7B5429E
:1080F000E9D82A4604990398FFF7ACFC7848202178
:1081000020180746FFF78CFC7548183026183846AB
:10811000FFF784FC0028FAD171481030241820465B
:10812000FFF77CFCC006C00EC10605D53046102105
:10813000FFF776FC284663E70007F0D530460821B4
:10814000FFF76EFC0C20C0435AE7FFB5002485B052
:108150000646082802D9601E09B0F0BD6048B50483
:1081600010382818FFF75AFC04900007000F022867
:1081700004D0042802D00420C043EDE7079800286B
:1081800005D059487700C05B002803D022E00D20BD
:10819000C043E1E753482038281803905048203066
:1081A00028180125B54002900398406A84B20298CD
:1081B000FFF734FC002806D048484088054207D025
:1081C000002C03D006E00320C043C5E70020C3E72E
:1081D000002CE9D041480021801D81550498B2044B
:1081E00041073F48490F151802291FD0042957D0CD
:1081F00021463046FFF756FC3B48C45328464021F1
:10820000FFF70EFC2846FFF709FC0028FAD1364894
:10821000C15B091B0904090CC15305D02F48012279
:10822000801D815D11438155204695E72E4CE05B12
:10823000002865D1082269463046FFF71FFC284612
:108240004021FFF7EDFB2846FFF7E8FB0028FAD1B5
:10825000684601780898017068464178089841702E
:1082600068468178089881706846C1780898C1701E
:1082700068460E990079088001026846407908181E
:108280000E9908806846807901026846C07908180E
:10829000E05332E0224630460699FFF7EFFBADE7A8
:1082A000114CE05B00282BD1022269463046FFF7D3
:1082B000E5FB28464021FFF7B3FB2846FFF7AEFB5E
:1082C0000028FAD16846007801026846407808180C
:1082D00080B20649E05388420FD909E00800002027
:1082E00010000146200201461C030020EA050000A0
:1082F0003046FFF7EDFB9E482EE79E4980208855CB
:10830000E45B07988442C5D90446C3E7F8B5144630
:108310000646082802D90020C043F8BD954B964870
:108320009B1F0927B2045D88FF4310180B0008F05B
:1083300057FD0805171B1D252E37314021780120D8
:10834000B040012902D0002905D032E08949891FB7
:10835000284348802BE08749891F85434D8026E0CC
:10836000F540E807C00F19E0844801E08348203059
:108370001018FFF753FB8002208018E020781F2898
:1083800017D8C1067C48C90E001D10180DE07A48A8
:10839000001F1018FFF742FBC006C00E207006E059
:1083A00021781F2905D8C906C90EFFF739FB01201E
:1083B000F8BD3846F8BDF8B51546082802D90020A2
:1083C000C043F8BD84046D4B6B4A6B48803BDC3284
:1083D00024380427E618A2182018FF430B0008F0E1
:1083E000FFFC084F050910421316444F62482978D4
:1083F000E43002E060482978E0302018FFF710FBF5
:1084000031E0288810612EE0288810622BE0FFF709
:1084100005FB0007000F01282DD13046FFF7FEFABB
:10842000002802D00120C043F8BD5348222114384F
:1084300020180546FFF7F4FA4F48001F26180DE0F4
:108440003046FFF7EBFA000708D54B480821001D1E
:108450002018FFF7E5FA0C20C043F8BD2846FFF7C7
:10846000DDFA0028ECD10120F8BDFFF7D7FA0007AC
:10847000000F012801D03846F8BD29783046BDE705
:108480000920C043F8BDF8B514460646082802D9AD
:108490000020C043F8BDB5043748374A374B24386D
:1084A000DC32EF182818AA180B0008F099FC0D0808
:1084B0000D121517305E323E404248525E00FFF703
:1084C000ADFA0009000102E02B48E43033E02070EF
:1084D0003DE02948E0302EE01069F8E72748D93818
:1084E0002818FFF79BFA20702448DA382818FFF77D
:1084F00095FA60702148DB382818FFF78FFAA070D2
:108500001E48DC382818FFF789FAE0701FE0106A6F
:108510001CE0FFF783FA0007000F01281FD117485E
:1085200080382818FFF77AFA10E078680EE0786A49
:108530000CE011480C302818FFF770FAC7E7FFF776
:108540006DFA0128F3D00E497000085A20800120EE
:10855000F8BDFFF763FA0007000F012802D00420DE
:10856000C043F8BD0348805DB1E70120C043F8BDBA
:1085700017FCFFFF0E000020240001460002014608
:108580001C030020704770477047704700787047A1
:1085900001707047002070477047FE4A002804D0E1
:1085A000002902D0D16090607047FB489060FB4882
:1085B000D0607047F74A002804D0002902D05161EA
:1085C00010617047F6481061F6485061704710B569
:1085D000F04A1388DC05FDD5002804D0002902D01C
:1085E000D161906110BDF0489061F048D06110BD3C
:1085F00010B5E84A13889C05FDD5002804D0002951
:1086000002D0D161906110BDE9489061E948D06124
:1086100010BD0020C04370470020C043704710B514
:10862000E548FFF7FBF90446E3481030FFF7F6F999
:108630000002001980B210BD10B5C1B2040A0909C8
:108640000901DD48FFF7ECF9DB4821461030FFF760
:10865000E7F910BDD84810B5001FFFF7DFF9044651
:10866000D5480C30FFF7DAF90002001980B210BDCE
:1086700010B5C1B2040AD04809090901001DFFF76D
:10868000CFF9CD4821460C30FFF7CAF910BDF0B53F
:1086900093B0CA48FFF7C2F91190C848401EFFF7CF
:1086A000BDF9C64C1090A41E2046FFF7B7F9651E11
:1086B0000F902846FFF7B2F90E90A01DFFF7AEF914
:1086C0000D90601DFFF7AAF90C90BC480830FFF729
:1086D000A5F90B90B948C01DFFF7A0F9B74E0A9055
:1086E000B61D3046FFF79AF90990E01DFFF796F99D
:1086F0000890B01DFFF792F90790701DFFF78EF9F3
:108700000690301DFFF78AF90590F01CFFF786F9F7
:108710000490AA481030FFF781F9A84F03900F3753
:108720003846FFF77BF90290781EFFF777F9019042
:10873000F01DFFF773F900908021A148FFF770F951
:108740009F48FFF76BF9A01C1199FFF769F9601CAE
:108750001099FFF765F920460F99FFF761F9284650
:108760000E99FFF75DF9A01D0D99FFF759F9601DEE
:108770000C99FFF755F9B01C0B99FFF751F9701CD4
:108780000A99FFF74DF930460999FFF749F9E01DBD
:108790000899FFF745F9B01D0799FFF741F9701DDA
:1087A0000699FFF73DF9301D0599FFF739F9F01CDF
:1087B0000499FFF735F9781C0399FFF731F938462A
:1087C0000299FFF72DF9781E0199FFF729F9F01D9D
:1087D0000099FFF725F913B0F0BDF8B50D46064630
:1087E0000024FFF754FF002E14D00022B05C521C6E
:1087F000001952B244B2082AF8DB102C17DC714F72
:108800000024A004315DC019FFF70AF9641C64B2AA
:10881000082CF6DB002D19D0002108462A5C401CEC
:10882000511840B249B20828F8DB102902DD0020B7
:10883000C043F8BD634E00242036A004295D801992
:10884000FFF7EEF8641C64B2082CF6DB0020F8BDDC
:1088500070B50C460246002108464D1E130008F074
:10886000BFFA0906091511181C2E2E202E00FFF73D
:108870000EFF22E0002C02D0214620460831FFF7EF
:10888000ACFF70BD2088FFF7F3FE16E0FFF7E2FEB5
:1088900005E02088FFF7D0FE0FE0FFF7C0FE208044
:1088A0000BE03C4882782270C27862700279A27034
:1088B0004279E270807920716171002070BD284694
:1088C00070BD10B504463D484130FFF7A7F8207051
:1088D0003A483D300068608010BD10B5044601780C
:1088E00036484130FFF79CF8344960883D310860D4
:1088F00010BD10B53248FFF791F810BD70B50446B1
:10890000C720044202D00020C04370BD2C4D284631
:10891000FFF784F8204301462846FFF781F800203E
:1089200070BD10B504462548FFF778F8207023483D
:10893000401EFFF773F860702048801EFFF76EF846
:10894000A0701E48C01EFFF769F8E0701B48001DAC
:10895000FFF764F820711948C01CFFF75FF86071D9
:1089600016480830FFF75AF8A0731448C01DFFF7E7
:1089700055F8E0731148801DFFF750F820740F4838
:10898000401DFFF74BF860740C480C30FFF746F8B9
:10899000A07219E020000020858500008785000076
:1089A000898500008B8500008D8500009185000081
:1089B000958500009985000004210046036000466B
:1089C00000230046000201465F480B30FFF726F8FF
:1089D000E0725D480A30FFF721F820735A480930E9
:1089E000FFF71CF8607358481030FFF717F8A071B4
:1089F00055480F30FFF712F8E07153480E30FFF77B
:108A00000DF8207250480D30FFF708F860724F489B
:108A10000178A1744178E17481782175C07860751E
:108A20004A48401E0078A07510BD10B50446017874
:108A30004548FEF7F5FF44486178401EFEF7F0FF19
:108A40004148A178801EFEF7EBFF3F48E178C01E49
:108A5000FEF7E6FF3C482179001DFEF7E1FF3A48AA
:108A60006179C01CFEF7DCFF3748A17B0830FEF7B8
:108A7000D7FF3548E17BC01DFEF7D2FF3248217C8D
:108A8000801DFEF7CDFF3048617C401DFEF7C8FF1A
:108A90002D48A17A0C30FEF7C3FF2B48E17A0B304A
:108AA000FEF7BEFF2848217B0A30FEF7B9FF2648B3
:108AB000617B0930FEF7B4FF2348A1791030FEF73F
:108AC000AFFF2148E1790F30FEF7AAFF1E48217A57
:108AD0000E30FEF7A5FF1C48617A0D30FEF7A0FFAF
:108AE0001A48A17C0170E17C4170217D8170617D1B
:108AF000C1701649A07D491E087010BD10B50C4606
:108B0000030008F06DF90604080C1014181D08463F
:108B1000FFF78BFF12E00846FFF703FF0EE008782F
:108B2000FFF7ECFE10BDFFF7E4FE207006E00846FC
:108B3000FFF7D3FE02E00846FFF7C3FE002010BD9A
:108B40000020C04310BD0000036000461900002053
:108B500070B58E4C05462088286161882846FEF74E
:108B60003AFD012001F0E3FD61882846FEF741FD52
:108B7000012001F0DCFD70BDF8B507460020834DF3
:108B80000446460069883846FEF725FD012001F0BD
:108B9000CEFD69883846FEF72CFD012001F0C7FDA7
:108BA00029883846FEF703FD3043641C102CE8D3B7
:108BB000F8BD70B5754C054620886861012001F04C
:108BC000B6FD61882846FEF706FD012001F0AFFDE5
:108BD00061882846FEF70DFD012001F0A8FD70BD5B
:108BE000F8B5074616462020801B81400C46674D8D
:108BF00018E02988002C384602DAFEF7ECFC01E088
:108C0000FEF7F7FC012001F092FD69883846FEF777
:108C1000E2FC012001F08BFD69883846FEF7E9FC93
:108C20006400761E002EE4D1F8BD70B50C4600211C
:108C300005462022C943FFF7D3FF04220621284618
:108C4000FFF7CEFF5148052241682846FFF7C8FFCD
:108C5000052221462846FFF7C3FF2846FFF7A9FF54
:108C60002846FFF789FF04462846FFF771FF204694
:108C700070BD10B5432001210006FFF7D6FF400765
:108C8000C00F10BD70B50C461646002105462022C7
:108C9000C943FFF7A5FF042205212846FFF7A0FFDF
:108CA0003A48052241682846FFF79AFF05222146E7
:108CB0002846FFF795FF022211462846FFF790FF4E
:108CC000102231462846FFF78BFF2846FFF740FF6A
:108CD00070BD01221203904203D0212109020840F5
:108CE0000246002143200006CCE7F8B500244326C5
:108CF000274F360600212022C9433046FFF770FF78
:108D0000042206213046FFF76BFF0522214630463C
:108D1000FFF766FF052201213046FFF761FF30466D
:108D2000FFF747FF3046FFF727FF05463046FFF7BE
:108D30000FFF002D03D0BD4201D02046F8BD641CBA
:108D4000082CD7DD0120F8BD7CB5054614460E463B
:108D50006846FEF725FC3046204300900120694616
:108D600008712846FEF7BBFB012221461046FEF79C
:108D700091FC012231461046FEF78CFC034D6E80BB
:108D80002C80FFF7B2FF68607CBD0000400000202F
:108D9000FFFF000010B5FE4CFE482178FEF740FEB4
:108DA000FC486178401EFEF73BFEFA48A178801E21
:108DB000FEF736FEF748E178C01EFEF731FEF548B3
:108DC00008342178001FFEF72BFEF2486178401F1F
:108DD000FEF726FEEF48A178801FFEF721FEED4842
:108DE000E178C01FFEF71CFEEA48241F21780838EE
:108DF000FEF716FEE74861780938FEF711FEE548F0
:108E0000A1780A38FEF70CFEE248E1780B38FEF74D
:108E100007FE10BD10B5E04C80212046FEF700FE95
:108E20002046FEF7FBFDFFF7B5FFD94CD948353496
:108E300021781038FEF7F4FDD64861781138FEF736
:108E4000EFFDD448A1781238FEF7EAFDD148E17869
:108E50001338FEF7E5FDCF4821790C38FEF7E0FD29
:108E6000CC4861790D38FEF7DBFD10BD10B5CA4C5A
:108E700080212046FEF7D4FD2046FEF7CFFDC44CEE
:108E8000C448353421781038FEF7CAFDC1486178EE
:108E90001138FEF7C5FDBF48A1781238FEF7C0FDB6
:108EA000BC48E1781338FEF7BBFDBA4821790C388D
:108EB000FEF7B6FDB74861790D38FEF7B1FD10BD7C
:108EC000B34B10B5DB1FB54C5C62B54C9C62B54C26
:108ED000DC62002800D05862002900D09962002A84
:108EE00000D0DA6210BD30B5A94B0120DB1F996BB1
:108EF00008704870062088700020C8705A6B120EE7
:108F00000A715A6B120C4A719A8E120A8A719A8EE1
:108F1000CA71996B802208818A72C872996B1A464D
:108F2000087348738873C873087448748874C87465
:108F3000087548758875C875087648768876C87645
:108F40003C3214780C7754784C7794788C77D478BA
:108F5000CC770C4615792034257052796270062240
:108F60008C18521CD2B22077102AF9D39A6B0021A8
:108F700054182034491CC9B220734029F8D39A6B85
:108F8000002154186034491CC9B220738029F8D3D9
:108F9000986B6321E0300173822242735322827303
:108FA000C17330BDFEB5FFF79EFF79483522C01F63
:108FB000836BF021CA540122F121CA54F221CA5410
:108FC0003D22F321CA540722F421CA540122F5217B
:108FD000CA5401463C310A78F621CA5401463C3154
:108FE0004A78F721CA5402463C329478F822D45485
:108FF00002463C32D478F922D45402463C321479E9
:10900000FA22D45402463C325479FB22D4540C2127
:10901000FC22D1540027FD21CF54122204463946A8
:10902000423406E09E18E036521C491C357392B259
:1090300089B2655C002DF5D1846B554BA61835338C
:10904000DD78E0363573521C92B2A6181D79E036F1
:109050003573521C92B2A5185B79E0352B73521C04
:1090600092B2CB1C511A0919E0310B72816B372374
:109070008C18E0342373521C92B28C18521C92B29A
:109080008D180623E03423730124E0352C73521C21
:1090900092B28D180324E035521C2C7392B28C18B6
:1090A000E0342373521C92B28C180F23E0342373E4
:1090B000521C92B28B183A24E0331C73521C92B2A9
:1090C0008B18E0333B24521C1C7392B2FF238C1884
:1090D000E0342373521CFF2492B2393404E08D181B
:1090E000E035521C2F7392B2A242F8D369460B713D
:1090F0004B718B71CB71432100918922816B01AB44
:1091000092008078FEF773FFFEBDFEB5FFF7EBFE21
:109110001F4C0020E41FE11D20560B462933FF277A
:1091200003284AD0042848D06846077147718771E0
:10913000C771A26B3520F025A8540120F125A85451
:109140000320F225A8543D20F325A8540720F42538
:10915000A8540120F525A8540D48F625353000788F
:10916000A8540B48F72535304078A8540848F8250E
:1091700035308078A8540648F9253530C078A85491
:109180000348FA2535300079A854014835300BE002
:109190004F0000201360004600230046958D00001C
:1091A000158E00006D8E00004079FB25A8546D4699
:1091B000ED791020FF2D16D039E0A06B00228272CD
:1091C000C2720A7802734A7842738A788273CA78C4
:1091D000C2731A78684602715A7842719A7882711D
:1091E000DA78C271A5E73225FC2085540425FD20DC
:1091F00085540E78FE2086544E78FF208654887859
:10920000AE01B054C978701C81543621401C815481
:10921000401C85541978401C81545978401C815455
:109220009978401C8154D978401C81541C20131813
:109230000C21E0331973401C13180021E03319731B
:10924000F94D401C05E01618E036401C337380B21F
:10925000491C6B5C002BF6D1A36BF34A1E18921FBE
:10926000D578E0363573401C80B21E181579E0368B
:109270003573401C80B21D185279E0352A73401CAA
:1092800082B2C81C511AC918E0310872A06B37218C
:109290008318E0331973521C91B243180822E0334B
:1092A0001A73491C89B243180122E0331A73491C0E
:1092B00089B243180322E0331A73491C89B2431858
:1092C0000622E0331A73491C89B243180F22E03397
:1092D0001A73491C89B242183A23E0321373491CAD
:1092E00089B242183B23E032491C137389B24218F9
:1092F0001F23E0321373491C89B242182123E03244
:109300001373491C89B24218E0321773491C0022BA
:10931000FF2389B2393303E04518E0352A73491C2D
:109320009942F9DB43200090892201AB9200A0789A
:10933000A16BFEF75CFEFEBD1CB5FFF7D4FDBA487D
:1093400000214238806B35228172C172F0210A54AB
:109350000122F1210A540422F2210A543D23F3216F
:109360000B540722F4210A540122F5210A54AE4974
:10937000F622891F0B7813544B78F72213548B78FD
:10938000F8221354CB78F92213540B79FA22135490
:109390004A79FB210A543222FC210A540422FD217D
:1093A0000A54A1493B390A78FE210A549E493B39A7
:1093B0004A78FF210A549C493B398A78FF210131C0
:1093C0000A5499493B39CA78FF2102310A5436229E
:1093D000491C0A540422491C0A549349FF22123999
:1093E0000B78053213544B78521C13548B78521C53
:1093F0001354CA78FF2108310A54FF22491C0A5429
:109400001D210023FF2239324418E034491C237304
:109410009142F9DBFF206946087148718871C87173
:1094200043200090804889224238816B01AB920032
:109430008078FEF7DCFD1CBD7FB57B4C7B4A423C4F
:10944000A07881048918496A0A04120C27D001A95E
:10945000009102ABA16BFEF778FE82B2684680886D
:1094600043283CD1A06B21463C31037F0D78AB42B1
:1094700015D1457F4B789D4211D1837F8D78AB42CA
:109480000DD1C37FCD78AB4209D1034620331D787F
:109490000E79B54203D15B7849798B4202D0002026
:1094A00004B070BDF03000258118F03915E0027865
:1094B000332A3ED008DC002A15D0012A18D0032A0E
:1094C0001AD0062A06D125E0352A0ED0362A3FD0FA
:1094D000FF2A06D04278801C80188842E7D368B201
:1094E000DEE70846F9E7401CF7E78578C01CF4E79B
:1094F0004D4A8378333A2EE04B4A43788678373AA0
:109500001670C6785670067996704679801DD670AA
:10951000C0180CE0444B427886782F3B1E70C6780A
:109520005E7006799E704679801DDE708018001F7F
:10953000D3E78278A261C37812029A18A2610379F4
:1095400012029A18A261437912029A18A26109E0E4
:10955000354A8378123A1370C37853700379937045
:109560004379D370801DB8E72F4800214238C1618C
:10957000052202624170704770B52B4C0125423CB8
:109580006157002622469057022917DAE269216ABC
:10959000914223D2012804D0022805D0042805D105
:1095A00002E0FFF7FFFC01E0FFF7AFFDE661E069D5
:1095B000401D20626078401C60700FE0012804D0DC
:1095C000022805D0042807D102E02670002503E018
:1095D000FFF7E8FC01202070FFF7C6FF284670BDAA
:1095E000F8B5134E3046FEF719FA0546032130460A
:1095F000FEF716FA0C4B0F483B3BDC1F0090112284
:109600000DA1A078FEF7F3FC074629463046FEF789
:1096100007FA0D371AD0FFF78FFEE069E169091AE2
:109620000229FBD30020F8BD8A0000200002014679
:109630004460004688130000434845434B5F49504F
:109640005F434F4E464C4943540000000120EAE777
:10965000F8B5B74C207806281ED0A078B54980040C
:109660004018FEF7DBF9222805D00023442202210E
:10967000A078FEF75DFA0125FFF7DEFEC1B20022F9
:10968000A256AB4800260127C01D130007F0A8FB17
:1096900005060D1C314C2F000520C4E706704670EE
:1096A0008670C670FFF77EFC5EE002291CD1A16BBC
:1096B0000A7C02704A7C42708A7C8270C97CC170CC
:1096C000FFF723FD02204BE005290BD1FFF788FFB0
:1096D000002801D0606A3FE0FFF746FFE06A80475C
:1096E000267004E006293DD0FFF746FF05462846D0
:1096F00099E7A16904254A1CF9D0E2694908914219
:10970000F5D28B490278C91C0A7042784A70827877
:109710008A70C078C870606B401C6063FFF7F5FC0E
:10972000FFF722FF04201BE004250529DAD1804938
:109730006670C91C0A7803789A420BD14A7843783C
:109740009A4207D18A7883789A4203D1C978C0783F
:10975000814202D0A06A03258047FFF705FF03205E
:109760002070C4E7FFF700FF2770C0E710B5704C0A
:10977000A078FEF7ADF90620207010BDF3B56E4F4E
:1097800083B00646002538460095FEF747F9684C39
:109790003C342070781EFEF741F96070B81EFEF769
:1097A0003DF9A070F81EFEF739F9E070381DFEF79C
:1097B00035F92071F81CFEF731F960710146207807
:1097C0006278E3781043A2781A4310432279104359
:1097D00008431FD1257008206070DC20A070E57060
:1097E0002571294665713846FEF71AF96178781EA9
:1097F000FEF716F9A178B81EFEF712F9E178F81E07
:10980000FEF70EF92179381DFEF70AF96179F81C87
:10981000FEF706F9464F4949BE700498B863E078F0
:109820006379421821798A1848409A18584080185C
:1098300078636846017840480C461030FEF7F0F82F
:1098400068464078029001463B480F30FEF7E8F842
:10985000684680780190014637480E30FEF7E0F800
:109860006846C678344831460D30FEF7D9F832489C
:1098700021461030FEF7D4F82F4802990F30FEF73A
:10988000CFF82D4801990E30FEF7CAF82A48314624
:109890000D30FEF7C5F8284821460830FEF7C0F81D
:1098A00025480299C01DFEF7BBF823480199801D89
:1098B000FEF7B6F820483146401DFEF7B1F8FFF735
:1098C00053FE3D7005B0F0BD1948C169491CC16126
:1098D00070471749C91D0A7802704A7842708A7821
:1098E0008270C978C170704711490B310A780270D3
:1098F0004A7842708A788270C978C17070470C4982
:109900000F310A7802704A7842708A788270C9787A
:10991000C1707047064913310A7802704A78427064
:109920008A788270C978C170704701488069704731
:10993000480000203000014603600046785634128B
:10994000017840780902401880B270470A0A027014
:109950004170801C7047F0B58446002005460646DD
:109960000C78491C002D00D1401C2706BF0F032F87
:109970000AD1002D00D1401CA4060978A40C64442F
:10998000091901250C78491C002C19D01B1B5B1EE2
:109990001BB2002B02DA0020C043F0BD002D05D120
:1099A000001903E00F781770491C521C2746641EEB
:1099B000A4B2002FF6D12E241470521C761CCFE7CF
:1099C000002E02D12E211170521C00211170F0BD09
:1099D00010B593B00C464B236A46FFF7BCFF411C01
:1099E00003D02018001D13B010BD0020FBE770B598
:1099F00093B015460C4606464B236A46FFF7ABFF6D
:109A0000411C46D024182046FFF79AFF0A34030071
:109A100007F0E6F9103C09133C3C13291313133CDF
:109A20003C13183C1F3C2078287060786870A07840
:109A3000A870E078E870241D28E04B236A460BE00C
:109A4000241823E02078641C20180178401C441856
:109A50001CE04B236A46A41C21463046FFF77BFFDF
:109A6000411C16D0ECE74B236A4621463046FFF7EF
:109A700072FF411C0DD024184B236A462146304604
:109A8000FFF769FF411C04D024181434204613B09A
:109A900070BD0020FBE7F7B50D460446122106F025
:109AA0004EF92846FFF74CFF2080A81CFFF748FF1F
:109AB00002040121002A00DAA1704204120FE270B0
:109AC000420500D52171820500D56171C20500D51E
:109AD000A171020600D5E1710007000F2072281D58
:109AE000FFF72EFF6081A81DFFF72AFFA0812846FF
:109AF0000830FFF725FFE08128460A30FFF720FFF6
:109B000029460C3100262082771E06E02846FFF702
:109B10005FFF010014D0761CB6B26089B042F5D860
:109B2000002607E02846029AFFF761FF010007D0F0
:109B3000761CB6B2A089B042F4D80020E18903E0D7
:109B40003846FEBD401C80B28142FBD80020218AED
:109B500001E0401C80B28142FBD8207A002801D06D
:109B60000020FEBD0120FEBDFFB55E4A0D465188B6
:109B700095B00346491C89B217985180FFF7E6FE5D
:109B8000D902FF31013189B2FFF7E0FE0121FFF771
:109B9000DDFE0021FFF7DAFE0021FFF7D7FE0021EE
:109BA000FFF7D4FE04462946684605F0C7FF6E4617
:109BB000304605F0E9FF80B213902E21304605F0C3
:109BC00071FF070002D0B81B85B200E0139D25701D
:109BD000641C002D12D02A463146204606F0B4F807
:109BE0006419002F07D013987619401B401E80B2CD
:109BF000761C1390E1E700202070641C01212046B0
:109C0000FFF7A4FE0121FFF7A1FE179919B0401A32
:109C100000B2F0BD3348816803290BD30022826073
:109C20000178022902D30270501E7047491C01704E
:109C300000207047012070472A4A50702A4851601E
:109C400050807047F7B5274C0D46002388B01A4660
:109C500002216078FDF76CFFFF2601363346294666
:109C600000206268FFF780FF3525009582B2089BCF
:109C700060786168FEF7BBF91C4F60788004C019FA
:109C8000406A05042D0C16D0B54200D9354607A808
:109C9000009006AB2A4660786168FEF756FA0A9A89
:109CA00001A86168FFF7F7FE05466078FDF710FF31
:109CB00028460BB0F0BDFFF7ADFF002801DA002009
:109CC000F7E70028D9D1352000902A46089B607814
:109CD0006168FEF78CF9D0E702488168491C816011
:109CE000704700009400002022110000000201468D
:109CF000F0B587B002F07AFB04466D46A81DFFF769
:109D0000E8FD03A802300690FFF7EEFD02A802303E
:109D10000746FFF7F4FD04A802300646FFF7FAFDF8
:109D2000214606221731684602F04AFC20460422EA
:109D3000A91D1D3002F048FC20460422213006995E
:109D400002F042FC204604223946253002F03CFC59
:109D5000204604223146653002F036FC6034E0785B
:109D6000002801D0022000E001206946887500200B
:109D7000FEF7C4FE07B0F0BD7047000070477047A3
:109D80007047704710B500F0DAFC10BD704770479F
:109D900010B5104804F0C6F910BD10B50E4804F017
:109DA000C1F910BD704770477047704770477047E2
:109DB0007047704710B504F048F910BD7047704700
:109DC00070477047704770477047704770477047DB
:109DD0007047704700C0004000D0004010B5C0B2CE
:109DE000FDF7F7FD10BD10B5FDF705FEFDF7F1FD20
:109DF00010BD0020C043704710B5C0B2FDF7E9FDAB
:109E000010BDFEE73EB502F0F1FA6421095C0029BD
:109E100006D0B3490978012906D0B2A005F030FB7D
:109E2000B4A005F02DFB3EBD014621314A7C097CE2
:109E300012020A43014620318B7B4C7B0094019334
:109E400002920B7BCA7A4931ABA005F019FBE7E718
:109E5000FEB502F0CBFA04460025B0490420FFF716
:109E6000EBFE20466030427969460A7082794A707A
:109E7000C27906468A70007AC870032000F0CEFED0
:109E800020462B306934019021466846019AFFF73D
:109E9000D9FE074601280BD06D1CEDB2022D07D864
:109EA00003F094FDF0780028EED0FFF7D1FBEBE74C
:109EB000012000F0B3FE3846FEBD10B502F096FA60
:109EC0006030C078002806D095480078012803D07B
:109ED00094A005F0D5FA10BDFFF727FD014696A026
:109EE00005F0CEFA10BD70B500248C490320FFF7B1
:109EF00045FC9C499A4A0846FEF7E2FF032000F021
:109F00008DFEFFF7A5FB0546042807D0002D01D1E3
:109F1000641CE4B2032C06D9FFF728FC012000F0F2
:109F20007DFE68B270BD03F051FDEAE7F0B58FB079
:109F300002F05CFA044638228B496846FDF73CF98A
:109F4000611D8AA005F09CFA26462036707A8D495C
:109F5000800009588CA005F093FA91A005F090FAC2
:109F6000204660300E90C078012823D092A194A0A2
:109F700005F086FA9BA005F083FA27462337787B05
:109F80003A7B010211439CA005F07AFAA149A2A0F4
:109F900005F076FA9F49A9A0491C05F071FAB0A016
:109FA00005F06EFA25464035287E002804D022466A
:109FB000583202E0B0A1DAE7B4A2002801D0B5A17E
:109FC00000E0B6A1B8A005F05BFABBA005F058FA16
:109FD0000E988078012811D0B0A1C0A2C7A005F0CA
:109FE0004FFAC9A005F04CFAD0A005F049FA787CE8
:109FF0003A7C0102114303D0D2A003E0A5A1ECE713
:10A00000A6A15EA005F03CFAD2A005F039FA2046E0
:10A010002130417D007D0902014301D0D3A001E040
:10A020009EA156A005F02CFAD4A005F029FA002331
:10A03000D8A2D8A1D9A005F023FA6879DE4980001A
:10A040000958DEA005F01CFAA87969468000095875
:10A05000E0A005F015FAE879E149095CE1A005F016
:10A060000FFA287AE04980000958E0A005F008FAC4
:10A07000687ADF49095CDFA005F002FA6979DF48F8
:10A0800000291CD00168DEA005F0FAF90223C1A264
:10A09000C0A1E0A005F0F4F9E5A3E7A2E8A1ECA0D7
:10A0A00005F0EEF9EFA005F0EBF9F7A005F0E8F9FF
:10A0B000787D3A7D0102114305D0ACA005E0A97A74
:10A0C00089004158DFE775A12CA005F0D9F9F1A06E
:10A0D00005F0D6F9717E002901D0F1A0EAE1E7E1AF
:10A0E000CC000020202320444E53204661696C653B
:10A0F000640D0A000D0A0000202320444E533A202C
:10A100002573203D3E2025642E25642E25642E25B2
:10A1100064203A2025640D0A000000002C03002072
:10A120001801002020232044484350204661696CD8
:10A1300065640D0A0000000020232044484350209D
:10A140004950204C65617365642074696D65203ADF
:10A15000202575207365636F6E64730D0A0000001F
:10A16000799D0000F19C0000A80F0100202D2044E3
:10A170006576696365206E616D653A2025730D0A09
:10A180000000000008010020202D2044657669634E
:10A1900065206D6F64653A2025730D0A000000008C
:10A1A000202D204E6574776F726B2073657474690F
:10A1B0006E67733A200D0A0053746174696300007E
:10A1C000092D204F627461696E696E6720495020C5
:10A1D00073657474696E67733A205B25735D0D0A4D
:10A1E00000000000092D205443502F55445020708A
:10A1F0006F7274730D0A0000092020202B20533247
:10A2000045206461746120706F72743A205B25642C
:10A210005D0D0A0051C30000092020202B2054436B
:10A22000502F5544502073657474696E6720706FA9
:10A2300072743A205B25645D0D0A0000092020201D
:10A240002B204669726D7761726520757064617448
:10A250006520706F72743A205B25645D0D0A000002
:10A26000202D2053656172636820494420636F6428
:10A27000653A200D0A0000004175746F6D617469C4
:10A2800063202D2044484350000000004E6F6E654F
:10A2900000000000456E61626C6564004469736192
:10A2A000626C656400000000092D2025733A205B74
:10A2B00025735D0D0A000000202D2045746865722D
:10A2C0006E657420636F6E6E656374696F6E207067
:10A2D000617373776F72643A200D0A0028544350FB
:10A2E00020736572766572202F206D697865642011
:10A2F0006D6F6465206F6E6C79290000092D202533
:10A30000732025730D0A0000202D20436F6E6E65AB
:10A310006374696F6E2074696D65722073657474FF
:10A32000696E67733A200D0A00000000092D20496C
:10A330006E61637469766974792074696D65723AC7
:10A34000200000005B25645D2028736563290D0AE9
:10A3500000000000092D205265636F6E6E65637406
:10A3600020696E74657276616C3A20005B25645DCD
:10A3700020286D736563290D0A000000202D2053ED
:10A38000657269616C2073657474696E67733A20D5
:10A390000D0A00005541525400000000092D2044D0
:10A3A00061746120257320706F72743A20205B25E0
:10A3B0007325645D0D0A0000C002002009202020E2
:10A3C0002B20554152542049463A205B25735D0DA0
:10A3D0000A000000092020202B2025642D00000009
:10A3E000A002002025642D00A402002025732D006A
:10A3F000B00200202564202F20000000B4020020BD
:10A40000466C6F7720636F6E74726F6C3A202573A1
:10A410000D0A0000092D2044656275672025732010
:10A42000706F72743A205B257325645D0D0A00001D
:10A4300028666978656429004E4F4E45000000008B
:10A440003131353230302D382D4E2D3100000000A5
:10A45000092020202B202573202F202573202573F1
:10A460000D0A0000202D2053657269616C20646123
:10A470007461207061636B696E67206F7074696FBF
:10A480006E733A0D0A000000092D2054696D653A7B
:10A4900020000000092D2053697A653A2000000051
:10A4A0005B25645D20286279746573290D0A0000BC
:10A4B000B649B74804F0E4FFB6A004F0E1FFB07F6E
:10A4C00001281CD0B149B24804F0DAFFB4A004F06E
:10A4D000D7FF8034E07E012814D0AC49BAA004F044
:10A4E000CFFFE37FA27F617FB9A004F0C9FFC1A0C5
:10A4F00004F0C6FFE87A002807D0C8A206E0B17EC3
:10A50000C7A0E1E7A1490839E8E7CAA2CCA1CEA0DB
:10A5100004F0B6FF287B002801D0D2A200E0D2A22E
:10A52000D5A1D7A004F0ACFFDCA004F0A9FFE64C55
:10A53000207804F063FEE54D80002F58207804F069
:10A540004EFEE34E800032583B46E2A1E3A004F009
:10A5500097FF607804F052FE80002F58607804F076
:10A560003EFE800032583B46E4A1E6A004F088FF9E
:10A57000A07804F043FE80002F58A07804F02FFE4E
:10A58000800032583B46E7A1E8A004F079FFE0786C
:10A5900004F034FE80002F58E07804F020FE8000A4
:10A5A00032583B46E9A1EBA004F06AFF207904F0A1
:10A5B00025FE80002F58207904F011FE80003258CB
:10A5C0003B46ECA1EDA004F05BFF607904F016FEC1
:10A5D00080002D58607904F002FE800032582B462E
:10A5E000EEA1F0A004F04CFFF6A19CA004F048FFFF
:10A5F0000FB0F0BD38B501F0F9FE04467CA004F0C0
:10A600003FFFF0A195A004F03BFFFBA1FDA004F0EB
:10A6100037FFFEA00090A37D627D217DFCA004F0A9
:10A620002FFFE8A18DA004F02BFF38BD1FB501F06E
:10A63000DDFE044600F08BF8FEA103C901910090F5
:10A64000FCA103C903910290FCF7EEFDFB4905F064
:10A650000EFCFB49086008202870FA4868802846EC
:10A66000FEF73BF902A96846FEF7B7F800F04DFA8D
:10A6700001F076FF02F083F803F06AFE04F001FDBA
:10A6800025464035687B002803D0FFF7B3FFFFF76E
:10A690004DFC26466036F0780127002803D0FFF7EE
:10A6A00022FC042840D002F08AF8687B002803D0FE
:10A6B00001F0E7FFFFF701FC2034607A012808D0A1
:10A6C0003079002805D0FFF7C3FB002801D0DE4811
:10A6D0000770687B002801D0FFF794FBDB4800245B
:10A6E0000770DB4F3878002803D0002001F017FBFB
:10A6F0003C70D84F03F06AF9002001F04FFBF0786E
:10A70000002801D0FEF7A4FFD3480178002900D02B
:10A71000047038780028EDD0687B002802D0CFA0E4
:10A7200004F0AEFE3C70E5E7D4480770BDE701B524
:10A73000D3480099016001680029FCD108BDD048C8
:10A740000168002902D00168491E0160704710B5F8
:10A7500000F0F4F9CB4A01209110FCF7C9FD03F099
:10A7600051FC03F02EFEFCF75FFD7D21C90005F0D2
:10A770007EFBC549401E884206D8C4494861C4488A
:10A780000722C3691B0285E18BE100009CA2000047
:10A790007CA10000092D20436861723A200000006E
:10A7A000202D2053657269616C20636F6D6D616E41
:10A7B00064206D6F64652073777469636820636FCC
:10A7C00064653A0D0A000000092D2025730D0A006A
:10A7D000092D205B252E32585D5B252E32585D5B9E
:10A7E000252E32585D2028486578206F6E6C7929B7
:10A7F0000D0A0000202D2048617264776172652087
:10A80000696E666F726D6174696F6E3A2053746120
:10A810007475732070696E730D0A00004454520001
:10A820005B252E32585D2028686578206F6E6C7924
:10A83000290D0A00504859206C696E6B0000000019
:10A8400050415F3130000000092D20537461747550
:10A850007320313A205B25735D202D2025730D0A6E
:10A86000000000004453520054435020636F6E6E4A
:10A87000656374696F6E000050415F303100000005
:10A88000092D2053746174757320323A205B25734F
:10A890005D202D2025730D0A00000000202D20488A
:10A8A0006172647761726520696E666F726D617442
:10A8B000696F6E3A205573657220492F4F20706979
:10A8C0006E730D0A0000000000030020100300203A
:10A8D0000803002050435F3133000000092D20554C
:10A8E000736572494F20413A205B25735D202D200E
:10A8F0002573202F2025730D0A00000050435F317F
:10A9000032000000092D2055736572494F20423AEC
:10A91000205B25735D202D202573202F2025730DAE
:10A920000A00000050435F3039000000092D205517
:10A93000736572494F20433A205B25735D202D20BB
:10A940002573202F2025730D0A00000050435F302F
:10A9500038000000092D2055736572494F20443A94
:10A96000205B25735D202D202573202F2025730D5E
:10A970000A00000050415F3037000000092D2055CB
:10A98000736572494F20453A205B25735D202D2069
:10A990002573202F2025730D0A00000050415F30E1
:10A9A00038000000092D2055736572494F20463A42
:10A9B000205B25735D202D202573202F2025730D0E
:10A9C0000A0000003D3D3D3D3D3D3D3D3D3D3D3DA1
:10A9D0003D3D3D3D3D3D3D3D3D3D3D3D3D3D3D3DA7
:10A9E0003D3D3D3D3D3D3D3D3D3D3D3D3D3D3D3D97
:10A9F0003D3D3D3D3D3D000057495A3735304455BA
:10AA00004F000000202573200D0A000064756F00C0
:10AA1000203E3E204669726D7761726520766572D0
:10AA200073696F6E3A2025642E25642E25642025D7
:10AA3000730D0A0004020202020202001027000045
:10AA400000200046C4090000CC000020B80000200F
:10AA5000B700002090020020B6000020203E2055C4
:10AA60004152542052782052696E672062756666A2
:10AA700065722046756C6C0D0A00000018010020FC
:10AA8000A4000020006CDC02FFFFFF0000E000E0FB
:10AA900004ED00E01B0A4C042343C36100208861DD
:10AAA0000A6110BDFEB50446022818D2574E650053
:10AAB000705B00900120694608715548A700C05995
:10AAC000FCF70DFD5248715B801E025D801E005D2B
:10AAD000FCF7E0FD4E48715BC059FCF77CFDFEBD04
:10AAE00070B5012311249D03A406002229462046A7
:10AAF000FCF7F8FD656170BD10B50123212000222F
:10AB000059024006FCF7EEFD10BD10B5012003F020
:10AB1000F5FA01229203432051000006FEF714F9D2
:10AB2000002003F0EBFAFFF7E7FFFFF7D9FF002063
:10AB3000FFF7B8FF0120FFF7B5FF10BD3549022030
:10AB4000086335498860704710B50121212049020A
:10AB50004006FCF72CFD10BD10B52124640601232E
:10AB6000002202212046FCF7BDFD0220606110BDDD
:10AB700070B5002421256D0602212846FCF717FD3B
:10AB8000002801D0012070BD0520FFF7D0FD641C16
:10AB9000E4B2052CF0D3002070BD70470020704750
:10ABA00010B50121112089038006FCF700FD10BDBE
:10ABB00010B5022807D2154A4100515A144A8000A4
:10ABC0001058FCF716FD10BD10B5022807D20F4A29
:10ABD0004100515A0E4A80001058FCF7FCFC10BD91
:10ABE000022808D20A49820089584A68074B400067
:10ABF000185A42404A60704710B5044A4100515A01
:10AC0000034A80001058FCF7DCFC10BDE00F010087
:10AC1000AC000020401100410020004170B5054605
:10AC200001F0E4FB0446293401F0E0FB2B0006F0C0
:10AC3000D7F806100406090C0E10012003E00220CC
:10AC400060700EE00320607006E00420FBE7052042
:10AC5000F9E76078022804D00021022004F06EFB9E
:10AC600070BD0121F9E700290FD00023FC4A00281C
:10AC70000CD0012813D002281AD0032805D1506B1C
:10AC8000401C1ED0106C401810647047506B401C64
:10AC900003D0506B40185063704753637047506B3C
:10ACA000401C03D0906B40189063704793637047CB
:10ACB000506B401C03D0D06B4018D0637047D363F7
:10ACC000704713647047FEB50C46074601F08EFBD3
:10ACD000002506464E360095019502950B2C00D3B3
:10ACE0000A2422463946684604F0CCFF304604F078
:10ACF0004BFFA04207D122466946304604F0F0FEE1
:10AD0000002800D101252846FEBDF1B584B001F030
:10AD10006DFB2930039001F069FB0746453701F0D0
:10AD200065FB4E3002907879022804D1002003F0B0
:10AD3000ABFC002871D104988104CA480818406A05
:10AD4000002586B20120C002C54C864201D90646C4
:10AD500001E0002E3CD0C4480818FCF75FFE17281D
:10AD600029D01C2827D022282BD1BD4832462C3090
:10AD7000034600901833BD490498FDF7E6F9B84939
:10AD8000608544310422081D04F0AAFE002818D072
:10AD9000B349486C8864387A012812D10846443097
:10ADA000A28DC17801920091837842780178B0A099
:10ADB00004F066FB05E03246AC490498FDF7B0F8B4
:10ADC0006085258365832573618D0220FFF74BFF26
:10ADD00003984078012804D0022809D1607800281F
:10ADE00006D10298007D012802D1A07A002806D061
:10ADF000608D002811D0F879012813D016E0314673
:10AE00009A48FFF760FF012809D0A5726585A07AEE
:10AE1000002802D10498FCF7B1FF05B0F0BD012075
:10AE2000A072F3E704F0E0FA0028F6D038788F4EED
:10AE3000012804D07879012814D000272CE00020C4
:10AE400003F0F2FB002705E0F15D002003F025FB95
:10AE50007F1CBFB2608D8742F6D3002003F0FCFB5D
:10AE6000618D0EE0E07B0128D7D1002705E0F15D80
:10AE7000002003F012FB7F1CBFB2608D8742F6D327
:10AE80000DE00320FFF7EFFE6585C6E7F15D0020CA
:10AE900003F003FB7F1CBFB2608D8742F6D381B203
:10AEA000EFE7F8B501F0A2FA05467B48293501889D
:10AEB0007A4800880A187A480088101A04F0E1FFDE
:10AEC000674C8EB2208D01273018FF02B84213D391
:10AED000687C00280DD0012E0BD1002003F00FFB61
:10AEE000C1B27048228D8154687C884201D11046DD
:10AEF000F8BD208D381A86B2E87BA97B0002084392
:10AF000005D1287C002802D1687C002801D00027C8
:10AF10002AE00025634F08E0002003F0F0FA218DBD
:10AF20007854491C6D1C2185ADB2B542F4D3208DF7
:10AF3000F8BD002003F0E3FA02465A49208D0A5476
:10AF4000401C80B220856A7C002A04D00918203970
:10AF5000C97F8A4204D0297C002903D0814201D1D3
:10AF600080B2F8BD7F1CBFB2B742E2D3E87BA97BB9
:10AF70000002084315D0258D002D12D0207A00281C
:10AF80000FD045480188454800880A184448008881
:10AF9000101A04F076FF002901D100202072284603
:10AFA000F8BD0020F8BDFEB5064601F01FFA0546C3
:10AFB000293501F01BFA45300090FFF772FF01467A
:10AFC00001900020FFF74FFE01980027244C002835
:10AFD00044D02549B0044018FCF720FD14283ED089
:10AFE000172863D01C2861D0222879D1A87800289E
:10AFF00008D1E878002805D12879002802D168799D
:10B00000002806D0687A297A00020843AB1C009019
:10B0100011E0134844300178002908D14178002913
:10B0200005D18178002902D1C07800280AD00C4BC4
:10B03000A08D443300901B493046019AFCF7D7FF9E
:10B0400006B206E00098007A012802D1164804F002
:10B0500017FA002E44DD208D801B208540E044E05F
:10B06000BC00002000020146300001462C0B0020ED
:10B07000203E2055445020506565722049502F5085
:10B080006F72743A2025642E25642E25642E256463
:10B09000203A2025640D0A009A0200209602002022
:10B0A000980200202C030020E0100100A07A012863
:10B0B00016D1F9493046019AFCF7A2FE00B20028E9
:10B0C00002DD218D081A208501200199FFF7CBFDB3
:10B0D000E87D012804D1207B002803D027736783F3
:10B0E0002783FEBD01202071F9E72785FEBDF8B555
:10B0F000074601F07BF901F079F90446293401F0A3
:10B1000075F90646E548BD0445362818FCF786FC67
:10B11000E34AE44B00281BD0222818D1E2480188DA
:10B1200010881A880818801A04F0ABFEDF4C208DB6
:10B13000014302D03846FFF736FFDD482818406A41
:10B14000618D80B2084302D03846FFF7DEFDF8BDBE
:10B15000002010801880D54D002328856885E0796F
:10B16000A17902020A4302213846FCF7E1FCB84209
:10B17000EDD10520FFF752FDE07BA17B00020843E3
:10B1800000D0E883307A0128E1D1CAA004F078F930
:10B19000F8BD10B5C54CE08A002809D0CC498842DA
:10B1A00004D2401C0840E08202D00DE00020E08282
:10B1B00002F0ABFF04F050FCFBF7E2FFC54904F0DE
:10B1C00060FEC5480818E08280B210BDB748002173
:10B1D000C170C171017141720172C17281720183CA
:10B1E000418441838184704770B5054601F0FEF8C3
:10B1F0000446AA49A80429344018FCF70FFC00288B
:10B2000007D02178032909D0172804D01C2802D0A0
:10B2100004E0284670BD2846FCF7B0FD2846FCF740
:10B2200057FCF6E710B500220621FDF7C4F810BD63
:10B23000F0B585B001F0DAF80446293401F0D6F80B
:10B240000546453501F0D2F8014600204E3106464C
:10B2500000900391A148FCF7E1FB69460870029059
:10B260009E48401EFCF7DAFB6946487001909B48F7
:10B27000801EFCF7D3FB6946887007469748C01EBE
:10B28000FCF7CCFB6946C8700399897D012908D178
:10B290008649097C012904D0287A012851D190A03F
:10B2A00011E00299002906D10199002903D1002F4C
:10B2B00001D1002803D0A178002907D00FE0287A17
:10B2C00001283ED190A004F0DBF83AE0E278002AB1
:10B2D00005D12279002A02D16279002A10D0029A7F
:10B2E0008A4214D1E378019A9A4210D12279974286
:10B2F0000DD1627990420AD1287A012805D020E048
:10B30000287A01281DD18F48DDE78FA0DBE702985E
:10B31000C02817D10198A82814D10398407D00288F
:10B3200010D1C0290ED1E278A82A0BD123799F42EF
:10B3300008D0287A012804D1607900908F4804F061
:10B340009FF80126304668E5F1B586B001F04EF869
:10B3500001F04CF80546293501F048F845300090D9
:10B3600001F044F806460024684602948481069859
:10B370004E368104494804910818FCF74FFB4C4AAB
:10B380000499012789180591172858D020DC002836
:10B390007ED013282BD0142818D1444C6078002874
:10B3A00014D1414801883E4800880A183D48008869
:10B3B000101A04F066FD002908D00698FFF714FF64
:10B3C0006770687B297B00020843208407B0F0BDCA
:10B3D0001828DDD01C28F9D1344C0598406A618DBD
:10B3E00080B20843069854D0FFF78FFCF5E72F4E44
:10B3F00070780128EAD1687B297B00020843318CF0
:10B400008842E3D83484FFF713FF01280DD0687A0F
:10B41000297A02020A43A91C0698FCF72BFCF07C4F
:10B42000401CC0B2F0740A28D0D30698FFF7DCFEA7
:10B430001B48F47404801B4804807470C6E71749E5
:10B44000049810394018FCF7E9FAC00722D002200E
:10B45000FFF7E4FB1548018B002905D1E97AAA7AA8
:10B460000902114300D0C7701048408B002804D156
:10B47000E87D002801D00D480771307D00280AD0F2
:10B480000A48417801297CD0827A11437CD07DE042
:10B4900021E11DE1AEE074E02C0300203000014604
:10B4A00096020020980200209A020020BC00002092
:10B4B00000020146203E205345473A5544505F4D17
:10B4C0004F44453A534F434B4F50454E0D0A0000F1
:10B4D000FFFF000010270000B8880000136000463E
:10B4E000203E205345473A434F4E4E454354494F23
:10B4F0004E204641494C4544202D20444E53204681
:10B5000061696C65640D0A00203E205345473A434B
:10B510004F4E4E454354494F4E204641494C4544B9
:10B52000202D20496E76616C696420495020616449
:10B5300064726573733A205A65726F2049500D0A20
:10B540000000000074110100203E205345473A439B
:10B550004F4E4E454354494F4E204641494C454479
:10B56000202D204475706C696361746520495020FA
:10B57000616464726573730D0A0000002C11010090
:10B5800002E0FD48877201E0477284840098007AE7
:10B59000012819D102AA04210698FCF774FF03AA16
:10B5A00005210698FCF76FFFF348407800286846AD
:10B5B0008189C07A009001916846837A427A017A43
:10B5C00009D0EEA003F05CFFEB484178002904D0DD
:10B5D000012907D007E0F4A0F4E7FE490C80FE49FA
:10B5E0000C8000E04470C474FC49049840180121A8
:10B5F000FCF716FAFA480188F64800880A18F64857
:10B600000088101A04F03DFCDB48008D014302D095
:10B610000698FFF7C8FC0598406AD74980B2498D63
:10B62000084302D00698FFF770FBD348C078012882
:10B630000ED1E87AA97A00020843CF49098B8842E3
:10B6400006D80698FFF7D0FDCB48047144834470B8
:10B65000E87D012827D1C8480179012923D1007B41
:10B66000002802D0012810D01DE0687E297E00024B
:10B670000843C149498B884215D8002813D0069841
:10B68000FFF7D0FDBC4844830773E87EA97E000223
:10B69000B94D0843698B884205D8002803D0069825
:10B6A000FFF7C0FD6C83B44D6878002800D08DE6AC
:10B6B000307D0128FBD1A87A0028F8D1A88CC9498F
:10B6C0008842F4D30698FFF78FFD6C72AC847DE658
:10B6D000FCF754FB7AE60120FFF7A0FAA64A50785F
:10B6E000002812D0204614465085FFF752FD02462E
:10B6F000202301210698FCF71BFA06998842D6D12F
:10B700004036707B012825D02AE0FFF75FFD2046F8
:10B7100010855085E8791446A97902020A4320234E
:10B7200001210698FCF704FA06998842BFD14036F9
:10B73000707B012805D1E87BA97B0002084300D07B
:10B74000E0830698FCF75FFA0098007A0128AED1F2
:10B75000A5A013E0E87BA97B0002084300D0E083AA
:10B76000A079002805D1687B297B0002084300D01E
:10B77000A7710098007A012899D1A5A003F080FE56
:10B7800024E6F1B586B000F031FE00F02FFE06464B
:10B79000293600F02BFE4530009000F027FE0746CA
:10B7A000002568460295858106984E3784048B48AB
:10B7B00008302018FCF732F99F49611804911728C6
:10B7C00012D002DC00287DD1B7E01828FCD01C285C
:10B7D00078D1694C0498406A618D80B2084306981C
:10B7E00071D0FFF792FAF5E77C4808382018FCF78B
:10B7F00015F9C0073AD00220FFF710FA5E48018B16
:10B80000002906D1F17AB27A0902114301D001214F
:10B81000C170397D002907D00121417285840098CB
:10B82000007A012803D018E001218172F7E702AA0B
:10B8300004210698FCF727FE03AA05210698FCF7C9
:10B8400022FE68468189C07A009001916846837A19
:10B85000427A017A54A003F013FE5E48012105806C
:10B860005D4805805D482018FCF7DAF85C480188DF
:10B87000584800880A1858480088101A04F001FB3C
:10B880003D4C208D014302D00698FFF78CFB0498B5
:10B89000406A618D80B2084302D00698FFF735FAFE
:10B8A000E07801280BD1F07AB17A00020843218BAD
:10B8B000884204D80698FFF797FC25716583F07DD0
:10B8C000012801E035E035E024D12079012821D19B
:10B8D000207B002802D001280FD01BE0707E317E33
:10B8E00000020843618B884214D8002812D00698C1
:10B8F000FFF798FC658301202073F07EB17E000283
:10B900000843618B884205D8002803D00698FFF7CA
:10B9100089FC6583387D01280BD1A07A002808D1E5
:10B92000A08C3049884204D30698FFF75DFC65720D
:10B93000A5844BE5FCF722FA48E50120FFF76EF9F4
:10B94000FFF744FC0C4C202325856585F079B179FF
:10B9500002020A4301210698FCF7EAF80699884298
:10B96000E7D14037787B012805D1F07BB17B00021D
:10B97000084300D0E08361E0BC000020203E20535B
:10B9800045473A434F4E4E454354454420544F207B
:10B990002D2025642E25642E25642E2564203A2032
:10B9A00025640D0A00000000203E205345473A431D
:10B9B0004F4E4E45435445442046524F4D202D2076
:10B9C00025642E25642E25642E2564203A202564C6
:10B9D0000D0A00009602002098020020280001466F
:10B9E0009A02002088130000203E205345473A5415
:10B9F00043505F4D495845445F4D4F44453A534588
:10BA0000525645525F534F434B4F50454E0D0A001F
:10BA1000203E205345473A5443505F4D49584544D2
:10BA20005F4D4F44453A434C49454E545F534F4355
:10BA30004B4F50454E0D0A00000201460698FCF798
:10BA4000E2F80098007A01288AD1F7A003F018FDE7
:10BA5000BCE4F1B58CB000F0C9FC00F0C7FC0546B1
:10BA6000293500F0C3FC0746453700F0BFFC4E30D7
:10BA7000002400900694684684830C98F34980045F
:10BA800002904018FBF7CAFF0126172823D01ADCC2
:10BA900000287DD0132814D1687B2A7B0102EC4852
:10BAA0001143028C91420CD80484FFF7C1FB01289A
:10BAB00007D0687A297A02020A43A91C0C98FCF77D
:10BAC000D9F80DB0F0BD1828E3D01C28F9D10C9896
:10BAD000FCF754F9F5E7DD49029810394018FBF7F7
:10BAE0009DFFC00742D00220FFF798F8D848018B8D
:10BAF000002905D1E97AAA7A0902114300D0C6705B
:10BB0000418B002903D1E97D002900D00671D0487E
:10BB100086728079012802D1CD4884710484387AF4
:10BB2000012815D106AA04210C98FCF7ACFC07AA41
:10BB300005210C98FCF7A7FC6846818BC07E00901D
:10BB400001916846837E427E017EC24803F098FCE4
:10BB5000C148BE490480C14808390480BC484474C7
:10BB60004673029840180121FBF75AFFB848807BC2
:10BB7000002868D008A9012003F05BFB08AF022071
:10BB8000B91C03F056FB391D042003F052FB00E002
:10BB900092E0B91D082003F04CFB0AA9102003F025
:10BBA00048FB0AA90231202003F043FB6846008CC1
:10BBB000512104F05CF9401C87B268468785408CAF
:10BBC000512104F054F9401C81B26846C1853220ED
:10BBD000322F01D96A469085322901D96946C88534
:10BBE0006846408D002801D09DA000E09EA06946D7
:10BBF000098D002901D09AA100E09BA16A46D28C50
:10BC0000002A01D096A200E097A26B469B8C002BE5
:10BC100001D093A300E094A30392049105900293B2
:10BC20006946C98D91A0019100906846838D8FA2CD
:10BC30009049914803F032FC82B28F490C98FCF78E
:10BC4000DFF883488473824FF87801280BD1E87AB3
:10BC5000A97A00020843398B884204D80C98FFF770
:10BC6000C3FA3C717C83E87D012800D029E738794C
:10BC70000128FBD1387B00280FD00128F6D1E87EBF
:10BC8000A97E00020843798B8842EFD80028EDD0C6
:10BC90000C98FFF7C7FA7C8313E7687E297E0002C1
:10BCA0000843798B8842E1D80028DFD00C98FFF751
:10BCB000B9FA7C833E73E2E70120FEF7AFFFFFF79E
:10BCC00085FA2046624C20856085FFF762FA0246BD
:10BCD000202301210C98FBF72BFF0C998842C5D13A
:10BCE00000984030407B012805D1E87BA97B000209
:10BCF000084300D0E083A079002805D1687B297B28
:10BD00000002084300D0A671387A0128AED1607CC9
:10BD10000028ABD159A003F0B3FB6674D1E6F8B5A7
:10BD2000044600F063FB0746293700F05FFB064638
:10BD3000204645360024464D002807D001202870B3
:10BD4000FEF76CFF387802280DD00DE02C7004202F
:10BD5000FEF764FF307A002811D051A003F090FB69
:10BD60000E2254A108E06C70307A002807D055A04C
:10BD700003F086FB0E2258A1002002F0A3FB3648F8
:10BD80002C85048035480480EC702C71EC716C714A
:10BD90002C836C836C84AC832C72F8BDF1B500F0FD
:10BDA00025FB0646293600F021FB0546453500F007
:10BDB0001DFB274C0027A17CA830002900D0A774C8
:10BDC000007801282FD0207801282CD1A0780128D4
:10BDD00009D10098FFF708FA0020FFF7A0FFA7702D
:10BDE000207801281FD13078002806D0012808D0FB
:10BDF00002280AD003280FD10BE00098FFF729FE94
:10BE00000AE00098FFF7BDFC06E00098FFF79CFAF7
:10BE100002E00098FFF76BF96879012801D0022849
:10BE200001D102F0E4FAF8BD203E205345473A54D0
:10BE300043505F5345525645525F4D4F44453A5328
:10BE40004F434B4F50454E0D0A0000003000014655
:10BE5000BC0000207CB9000096020020980200205F
:10BE600048494748000000004C4F57007374657004
:10BE700000000000BC1101002C030020203E2053D4
:10BE800045473A5443505F434C49454E545F4D4FEC
:10BE900044453A534F434B4F50454E0D0A00000066
:10BEA000203E205345473A4154204D6F64650D0AAA
:10BEB000000000005345473A4154204D6F64650D22
:10BEC0000A000000203E205345473A4757204D6F57
:10BED00064650D0A000000005345473A4757204D5E
:10BEE0006F64650D0A00000010B500F07FFA29307C
:10BEF000407810BDF1B584B000F078FA00F076FA21
:10BF00000546293500F072FA4530009000F06EFACF
:10BF10004E3000240190029468468481049886047F
:10BF2000FB483018FBF77AFDFA497718172829D013
:10BF30001ADC00287ED0132814D1687B2A7B0102EA
:10BF4000F5481143028C91420CD80484FFF770F934
:10BF5000012807D0687A297A02020A43A91C0498AA
:10BF6000FBF788FE05B0F0BD1828E3D01C28F9D1F6
:10BF7000E94C786A618D80B2084304987CD0FEF762
:10BF8000C4FEF6E7E24810383018FBF747FDC0075B
:10BF900044D00220FEF742FEDF48018B002906D183
:10BFA000E97AAA7A0902114301D00121C170418BBB
:10BFB000002904D1E97D002901D001210171D64871
:10BFC000012181728079012802D1D34884710484CF
:10BFD0000098007A012815D102AA04210498FCF7E0
:10BFE00052FA03AA05210498FCF74DFA68468189A4
:10BFF000C07A009001916846837A427A017AC748F4
:10C0000003F03EFAC64801210480C6480480C248B5
:10C010004474BF4808383018FBF702FDC248018855
:10C02000BF4800880A18BF480088101A03F029FF8B
:10C03000B94E00E04AE0308D014302D00498FEF78B
:10C04000B2FF786A718D80B2084302D00498FEF77F
:10C050005CFEF07801280BD1E87AA97A0002084347
:10C06000318B884204D80498FFF7BEF8347174838A
:10C07000E87D012801D075E725E030790128FAD163
:10C08000307B00280FD00128F5D1E87EA97E000280
:10C090000843718B8842EED80028ECD00498FFF753
:10C0A000C1F874835EE7687E297E00020843718BC5
:10C0B0008842F7D80028F5D00498FFF7B3F87483C6
:10C0C00001203073E1E7FBF759FE4BE70120FEF753
:10C0D000A5FDFFF77BF8904E34857485FFF759F87E
:10C0E0000246202301210498FBF722FD049988428F
:10C0F000D8D101984030407B012805D1E87BA97B4D
:10C100000002084300D0F083B079002806D1687B94
:10C11000297B0002084301D00120B0710098007A09
:10C120000128BFD1707C0028BCD1804803F0A8F959
:10C130000120707416E7F8B507467B480024008894
:10C140002546774E00900FE0734879492E30025D06
:10C1500030880A54401C009903F089FE6E483180F3
:10C160002E300555641CE4B2BC42EDD36A484571DB
:10C17000057558E670B5054600F038F900F036F957
:10C18000654C4E302178012911D1014640310B46D2
:10C19000497B00290BD0217D22462E32002908D070
:10C1A000012912D0022910D0032922D11AE000203F
:10C1B00070BDD87BA8421CD1A08BE18B884218D1DE
:10C1C000157001202075607113E040184030C07B6D
:10C1D000A8420BD1A08BE38B984207D25554491C3F
:10C1E000217506E0A08BE28B904202D20846FFF751
:10C1F000A2FF0020A083207D70BD70B5044600F032
:10C20000F5F80546293500F0F1F802466878453220
:10C210000021012806D0022807D0042805D00528CF
:10C2200012D102E0287802280ED15079012101288C
:10C230000AD13948112C02D0132C02D004E001217C
:10C2400000E00021C1730021084670BD10B500F068
:10C25000CDF80446293400F0C9F88E30407B01281F
:10C260000FD12D49087801280BD1E07BA27B000279
:10C27000104306D0C879002801D10120C8710020E0
:10C28000488410BD00B500222349030004F0A8FD36
:10C2900005090B0D070408004A638A63CA630A6430
:10C2A00000BD4A6300BD8A6300BDCA6300BD02468B
:10C2B00000201949002A07D0012A07D0022A07D0F6
:10C2C000032A00D1086C7047486B7047886B704731
:10C2D000C86B7047F8B500F089F80F4C0646A07996
:10C2E00029360025002808D0218C1248814203D22B
:10C2F000208C401C208400E02584207900281CD05C
:10C30000618B0C48814217D2608B401C608314E023
:10C310003000014600020146BC0000207CB900004C
:10C3200096020020980200209A0200207CBE0000A5
:10C3300025180020FFFF00006583A08BE18B884259
:10C3400002D2A08B401CA0836079012700280AD06C
:10C35000A08BE18B884206D1207D032811D0FFF706
:10C36000EAFE25756571E07900280FD0F07BB17B7E
:10C3700000020843618C884205D9608C401C6084AF
:10C3800004E0A770EDE76584E5712772607A002804
:10C3900008D0A18C1348814203D2A08C401CA084F9
:10C3A00000E0A584607B002809D0F07BB17B00020F
:10C3B0000843E18C884203D9E08C401CE08432E5DC
:10C3C000E584A7732FE50848C178002906D0018BC2
:10C3D000044A914202D2018B491C018301218174DC
:10C3E00070470000FFFF0000BC000020FE487047BF
:10C3F000F8B5FD4EF920307000207070B070012546
:10C40000F570044630710F21701D03F098FC0A226C
:10C41000F6A1701D03F036FC35757575B475C02135
:10C420007177A822B2770B23EF48F37702262030EA
:10C43000067041708270C3700571FF264671867167
:10C44000C671047244728572C17202734373EA4BFF
:10C4500003268673C11C0B731A0A4A73421C137499
:10C460001F0A57740C74270A4F74E44F17753F0A5C
:10C470005775FF22F5320A75120A4A75447684769A
:10C48000C476047744778477C47720300570DC4A1B
:10C49000411C0A70120A4A70C11C0B701A0A4A70B9
:10C4A00044710C218171C571047244728472C4722A
:10C4B000047345730A21183003F041FCCA480A216D
:10C4C0004E3003F03CFCC848082160308470C470D2
:10C4D000047141718171C17101723221093003F01F
:10C4E0002EFCC1482B218030C576047741778177B7
:10C4F000C177BD4F3F20A037387000207870B81C3E
:10C500000670310A41703C71210A79710471210A67
:10C5100041713C72BB49401E0172090A41720146D9
:10C520000A31002003F09BFC5020387400207874FE
:10C5300038461330BD741E21044603F000FC13225C
:10C54000B1A1204603F09EFB384631302821044635
:10C5500003F0F5FB2022B1A1204603F093FBF8BDC8
:10C5600010B5FEF71AFBF9239F4A0021012001F0C4
:10C57000DDFC9D4C607821780002084302D0AF4971
:10C58000884207D1FFF734FFF923974A00210120A1
:10C5900001F013FD944901202031887220756075E7
:10C5A0000020A075FEF7FAFA8F494031487110BD9E
:10C5B00010B5F9238C4A0021012001F0FEFC10BDCA
:10C5C00010B503F05FFB10BD10B503F05BFB10BDB1
:10C5D00010B504460146844806221730FFF7F4FFE1
:10C5E00081480422A11D1D30FFF7EEFF7E48214641
:10C5F00004220E312130FFF7E7FF7B482146042259
:10C600000A312530FFF7E0FF774821460422123136
:10C610006530FFF7D9FF7448A17D6030012902D051
:10C620000121C17010BD0021FBE710B56E49044621
:10C6300006221731FFF7C4FF6B4904221D31A01DEC
:10C64000FFF7BEFF68492046042221310E30FFF774
:10C65000B7FF65492046042225310A30FFF7B0FFB5
:10C6600061492046042265311230FFF7A9FF5E4878
:10C670006030C078002801D0022000E00120A075C1
:10C6800010BD30B589B0584D03A90120FCF736FA2A
:10C690006846427C017CC07B6B4607C36846837B4F
:10C6A000427B017B66A002F0EBFE28462330417BF3
:10C6B000007B090201436846407D00900191684675
:10C6C000037DC27C817C68A002F0DAFE6846407F70
:10C6D00000906846037FC27E817E6CA002F0D0FE8F
:10C6E0006846407E00906846037EC27D817D6DA0D5
:10C6F00002F0C6FE08A84078009008A803786846B3
:10C70000C27F817F6DA002F0BBFE2C462034607A90
:10C7100001282DD06420415D601C0129417C0FD08F
:10C72000027C0802A17B104301900091637B227B75
:10C73000E17A68A002F0A4FE607A032809D017E02D
:10C740000A02007C2946024369316DA002F098FE7E
:10C750000EE0E07A002808D1207B002805D1607B1C
:10C76000002802D1A07B002807D06FA002F088FE2D
:10C770006CA002F085FE09B030BD70A0F6E710B5E0
:10C78000194C7348E17DFBF74BF97148217E401E3F
:10C79000FBF746F96E48617E801EFBF741F96C4855
:10C7A000A17EC01EFBF73CF96948E17E001DFBF746
:10C7B00037F96748217FC01CFBF732F910BD10B56F
:10C7C000094C86B02146062217316846FFF7F8FE6D
:10C7D000214601A804221D310230FFF7F1FE042298
:10C7E0002146213103A8B5E02C13002057495A37C0
:10C7F000353044554F00000088130000B80B00008E
:10C80000581B000052C300006465766963652E778B
:10C81000697A77696B692E6E657400002F77697A83
:10C8200037353073722F66772F5737353030785F52
:10C830005332455F4170702E62696E00FFFF000049
:10C840002023204D41433A20253032583A253032BA
:10C85000583A253032583A253032583A2530325835
:10C860003A253032580D0A002023204950203A2022
:10C8700025642E25642E25642E2564202F20506FDC
:10C8800072743A2025640D0A00000000202320471E
:10C8900057203A2025642E25642E25642E25640D0C
:10C8A0000A000000202320534E203A2025642E2524
:10C8B000642E25642E25640D0A00000020232044E8
:10C8C0004E533A2025642E25642E25642E25640DB2
:10C8D0000A00000020232044657374696E61746946
:10C8E0006F6E2049503A2025642E25642E25642E33
:10C8F0002564202F20506F72743A2025640D0A00A1
:10C9000020232044657374696E6174696F6E2044DE
:10C910006F6D61696E3A202573202F20506F7274FD
:10C920003A2025640D0A000020232320554450207E
:10C93000313A31204D6F64650D0A00002023232019
:10C9400055445020313A4E204D6F64650D0A000069
:10C95000036000460230FFF733FE214602A804229E
:10C9600025310230FFF72CFE214604A80422653150
:10C970000230FFF725FE6034E078002801D0022065
:10C9800000E00120694688750020FCF7B7F806B082
:10C9900010BD08480121C170704706480021C170D0
:10C9A00070470146034810B50622493803F06AF97A
:10C9B00010BD00008C130020F8B500270D4604467A
:10C9C0000F70FB4E09E003F0DFF8024620463168A5
:10C9D00003F0FCF8002804D0361D30680028F2D19E
:10C9E00029E03068002826D0F148301A8005060E6C
:10C9F0002B2E07D02C2E11D0A11C284603F09EF818
:10CA00003046F8BD207A0D2815D1607A0A2812D157
:10CA10000622A11C284603F035F9F1E7002002E0C8
:10CA20002954401CC0B2211889780D29F8D1211849
:10CA3000C9780A2901D0FF20F8BD2F542818477063
:10CA4000DEE7F0B59FB00F460546FFF7CFFC159027
:10CA5000002410A90C8404213846199403F06FF9BE
:10CA6000D4A12846DFE304A9FFF7A6FF0646FF2866
:10CA700067D004A803F088F880B202906846007C72
:10CA8000002854D0CA49882224390978114259D043
:10CA9000482E56D273007B449B885B009F449002D3
:10CAA000A302A302A602B1026305C1026305CC0280
:10CAB000D602E102ED02FC02080321032C0341032C
:10CAC00078047804780478047804780456036403BE
:10CAD00073037F03A803B80300040B0416042504A2
